:020000040800F2
:10000000E8090020E90200084D2A000841260008FE
:10001000492A0008DF040008B1320008000000008F
:10002000000000000000000000000000290200089D
:10003000950500080000000085020008992C0008C2
:100040000303000803030008030300080303000878
:100050000303000803030008030300080303000868
:100060000303000803030008030300080303000858
:100070000303000803030008030300080303000848
:100080000303000803030008030300080303000838
:10009000E5040008F5040008030300080303000852
:1000A00003030008952D000803030008030300085C
:1000B0000303000803030008030300080303000808
:1000C00003030008030300080303000803030008F8
:1000D00003030008A132000803030008030300081B
:1000E00003030008030300080303000803030008D8
:1000F00003030008030300080303000803030008C8
:1001000003030008030300080303000803030008B7
:1001100003030008030300080303000803030008A7
:100120000303000803030008030300080303000897
:100130000303000803030008030300080303000887
:100140000303000803030008030300080303000877
:100150000303000803030008030300080303000867
:100160000303000803030008030300080303000857
:100170000303000803030008030300080000000055
:10018000030300080303000800F002F800F03CF845
:100190000AA090E8000C82448344AAF10107DA45E2
:1001A00001D100F031F8AFF2090EBAE80F0013F0F8
:1001B000010F18BFFB1A43F0010318473C3E000033
:1001C0005C3E0000103A24BF78C878C1FAD85207C4
:1001D00024BF30C830C144BF04680C6070470000C1
:1001E0000023002400250026103A28BF78C1FBD840
:1001F000520728BF30C148BF0B6070471FB503F0DE
:10020000E5FE1FBD10B510BD00F02FF91146FFF738
:10021000F5FF03F06BF800F04DF903B4FFF7F2FFC0
:1002200003BC00F055F900002C4B19680868B0E8D1
:10023000F04F80F30988BFF36F8F4FF0000080F319
:10024000118870470000000008480068006880F3CB
:1002500008884FF0000080F3148862B661B6BFF3DF
:100260004F8FBFF36F8F00DF00BF00BF08ED00E0CE
:10027000DFF80C00016841F470010160704700BFB5
:1002800088ED00E0EFF30980BFF36F8F134B1A681E
:100290001EF0100F08BF20ED108A20E9F04F10600B
:1002A00009B44FF0500080F31188BFF34F8FBFF3B4
:1002B0006F8F03F0F1F84FF0000080F3118809BC54
:1002C00019680868B0E8F04F1EF0100F08BFB0ECD6
:1002D000108A80F30988BFF36F8F704720000020D9
:1002E000EFF3058070470000094880470948004740
:1002F000FEE7FEE7FEE7FEE7FEE7FEE7FEE7FEE7D6
:10030000FEE7FEE704480549054A064B7047000032
:10031000812D000889010008E8030020E809002079
:10032000E8050020E805002053EA020C00F069808F
:100330002DE9F04B4FF00006002B1FBFB3FA83F5F9
:1003400003FA05F424FA05F65E4012BF1643B2FA2A
:1003500082F502FA05F4C5F120051EBF22FA05FC5C
:1003600044EA0C04203556EA044C4FEA144418BF02
:10037000641C4FF000084FF00009904271EB030C31
:1003800039D3002919BFB1FA81F701FA07F6B0FA9B
:1003900080F700FA07F6C7F120071EBF20FA07FC16
:1003A00046EA0C062037B6FBF4FCA7EB0507103F26
:1003B00007F01F0BCBF120060CFA0BFB2CFA06F60C
:1003C00044BFB3460026202FA4BF5E464FF0000B6B
:1003D0005BEA060C08BF4FF0010B19EB0B09ABFBF6
:1003E000027C48EB0608C01B06FB02CC0BFB03CCCF
:1003F00071EB0C01C1E70B46024641464846BDE899
:10040000F08B13B54FF000004FF00001AFF3008008
:10041000BDE81C4070474FF0000200B513469446FB
:100420009646203922BFA0E80C50A0E80C50B1F14C
:100430002001BFF4F7AF090728BFA0E80C5048BF60
:100440000CC05DF804EB890028BF40F8042B08BFFE
:10045000704748BF20F8022B11F0804F18BF00F8FA
:10046000012B7047704770477047754600F02CF8B5
:10047000AE4605006946534620F00700854618B091
:1004800020B5FFF73FFFBDE820404FF000064FF0DA
:1004900000074FF000084FF0000B21F00701AC46B9
:1004A000ACE8C009ACE8C009ACE8C009ACE8C009D8
:1004B0008D46704710B50446AFF300802046BDE876
:1004C0001040FFF7AABE00000048704788030020D4
:1004D00001491820ABBEFEE726000200704700BFAE
:1004E000FEE7000010B5024800F068FA10BD0000F9
:1004F000B800002010B5024800F060FA10BD0000FE
:10050000B80000202DE9F04107460C4615461E466E
:100510004FF400700D49086000208860C860082012
:100520000861380A0A4908704F70200A8870CC7038
:10053000280A08714D71300A8871CE7101230A466C
:100540000249044800F03FF8BDE8F0815C02002059
:100550005C000020B800002000B58BB0012009909D
:100560000020079001200890002001900290039045
:1005700004900690059001A9054800F0CFF80448C2
:1005800000F06BFE0221024800F008F80BB000BD3D
:10059000B8000020704772B600BFFEE710B50246F3
:1005A00092F82030012B01D0022B06D1106840694F
:1005B000084314686061002010BD506A40F4802038
:1005C00050620120F8E7F0B504460D461E4694F847
:1005D000207020688368A86800B900E000BF012F80
:1005E00001D0022F7CD103F0806030B903F00060AD
:1005F00018B903F08050002873D0C3F301610229B9
:1006000005D9606A40F4000060620120F0BD01205D
:1006100088403060A86860B9B5F800C0E86840EA72
:100620004C5C206800F5C07000EB0110C0F800C001
:100630000FE0D5E901C040EACC00D5F80CC040EA93
:100640000C00D4F800C00CF5C07C0CEB011CCCF8FD
:100650000000D5F810C0206800F5C07000EB011054
:10066000C0F804C0287D01280ED1206800F5C070B4
:1006700000EB0110406840F4807C206800F5C070F9
:1006800000EB0110C0F804C0D079000692F806C053
:1006900040EA0C4092F805C040EA0C2C10794CEA74
:1006A000000C206800F5C07000EB0110C0F80CC011
:1006B000D078000692F802C040EA0C4092F801C0DF
:1006C00040EA0C2092F800C040EA0C00D4F800C0C8
:1006D0000CF5C07C0CEB011CCCF80800206801E094
:1006E00016E00FE000F5C07000EB0110006840F06C
:1006F000010C206800F5C07000EB0110C0F800C0CC
:10070000002083E7606A40F40010606201207DE70A
:10071000606A40F480206062012077E7F0B504460B
:100720000A46216894F82050012D01D0022D7ED177
:10073000424901F50071086840F00100086008684E
:1007400020F47C5008600868566A40EA0620086079
:10075000107D00F01F06012000FA06F3C8699843D7
:10076000C861A1F50071D069C8B9D1F80C029843ED
:10077000C1F80C02908880B2968940EA064601F5DD
:100780001070576940F83760108880B2168940EAC7
:10079000064601F51070576900EBC7004660D06946
:1007A000012819D1D1F80C021843C1F80C02908825
:1007B00080B2168840EA064601F51070576940F885
:1007C0003760908980B2168940EA064601F51070BC
:1007D000576900EBC7004660906928B9D1F8040258
:1007E0009843C1F8040204E0D1F804021843C1F8A8
:1007F0000402106928B9D1F814029843C1F8140210
:1008000004E0D1F814021843C1F81402106A012858
:1008100004D1D1F81C021843C1F81C02D1F800021F
:1008200020F00100C1F800020020F0BDFFE7606A7F
:1008300040F4802060620120F7E70000006400407F
:10084000704770B5044694F82050012D01D0022D58
:100850007DD151B92068C06800F0030080B9606A9A
:1008600040F400106062012070BD2068006900F053
:10087000030028B9606A40F4001060620120F3E7C9
:10088000206800F5D87000EB0110006800F004004B
:100890009060906840B9206800F5D87000EB0110B6
:1008A0000068400D106007E0206800F5D87000EB8C
:1008B00001100068C0085060206800F5D87000EB97
:1008C0000110006800F00200D060206800F5D870C8
:1008D00000EB0110406800F00F001061206800F587
:1008E000D87000EB0110406800F47F40000A90616E
:1008F000206800F5D87000EB01104068000C5061D2
:10090000206800F5D87000EB01108068187020682E
:1009100000F5D87000EB0110806800F47F40000AF9
:100920005870206800F5D87000EB0110806800F462
:100930007F00000C9870206800F5D87000EB011063
:100940008068000ED870206800F5D87000E02FE0B5
:1009500000EB0110C0681871206800F5D87000EB3A
:100960000110C06800F47F40000A5871206800F54B
:10097000D87000EB0110C06800F47F00000C987183
:10098000206800F5D87000EB0110C068000ED87127
:1009900031B92068C06840F020002668F06005E0AA
:1009A0002068006940F020002668306100205BE785
:1009B000606A40F480206062012055E72DE9F05F15
:1009C00004460025206846692068D0F80490206815
:1009D00087682068D0F80CA02068D0F810B0206894
:1009E000D0F8188006F00100002855D007F001006B
:1009F000C0B101202168886007F0020018B12046CC
:100A000000F05BFC0EE007F0040010B145F4006557
:100A100008E007F0080010B145F4805502E02046D8
:100A200000F04AFC07F48070C8B14FF48070216870
:100A3000886007F4007018B1204600F040FC0EE01A
:100A400007F4806010B145F4005508E007F4006039
:100A500010B145F4804502E0204600F02FFC07F479
:100A60008030C8B14FF480302168886007F40030CE
:100A700018B1204600F025FC0EE007F4802010B1EC
:100A800045F4004508E007F4002010B145F4803536
:100A900002E0204600F014FC06F0080038B10AF02D
:100AA000100020B145F4007510202168C86006F0E0
:100AB000040040B10AF0080028B108202168C8608D
:100AC000204600F0B1F906F0020038B12068C06895
:100AD00000F0030010B1204600F0A8F906F0400035
:100AE00038B10BF0100020B145F48065102021686A
:100AF000086106F0200040B10BF0080028B1082082
:100B000021680861204600F0A5FB06F0100038B10E
:100B10002068006900F0030010B1204600F09BFB44
:100B200006F4003040B109F0100028B1102021680F
:100B30004860204600F090FB06F4803040B109F098
:100B4000080028B1082021684860204600F0BAFB60
:100B500006F4004088B309F0040078B306F480700E
:100B600020B108F0010008B145F0010506F400705D
:100B700020B108F0020008B145F0020506F48060DB
:100B800020B108F0040008B145F0040506F4006047
:100B9000A0B108F0700088B108F07000402817D0AC
:100BA00006DC10280BD020280CD0302819D10CE0FE
:100BB000502810D0602814D110E01DE019E045F055
:100BC00008050FE045F010050CE045F0200509E0B0
:100BD00045F0400506E045F0800503E045F48075EA
:100BE00000E000BF00BF2068806920F0700021682D
:100BF00088610420216848602DB1606A28436062E2
:100C00002046FFF71DFEBDE8F09F70B504460CB905
:100C1000012070BD94F8200010B9204600F0B0F813
:100C20002068006840F001002168086000F0CCFCFA
:100C300005460DE000F0C8FC401B0A2808D9606A90
:100C400040F400306062052084F820000120E0E7D5
:100C50002068406800F001000028EBD020680068A0
:100C600020F002002168086000F0AEFC05460DE0AF
:100C700000F0AAFC401B0A2808D9606A40F4003042
:100C80006062052084F820000120C2E720684068E7
:100C900000F002000028EBD1207E012806D1206858
:100CA000006840F080002168086005E02068006866
:100CB00020F0800021680860607E012806D120684D
:100CC000006840F040002168086005E02068006886
:100CD00020F0400021680860A07E012806D120682D
:100CE000006840F020002168086005E02068006886
:100CF00020F0200021680860E07E012806D12068ED
:100D0000006820F010002168086005E02068006895
:100D100040F0100021680860207F012806D120687B
:100D2000006840F008002168086005E0206800685D
:100D300020F0080021680860607F012806D1206843
:100D4000006840F004002168086005E02068006841
:100D500020F0040021680860D4E9020108432169F9
:100D60000843616908436168491E08432168C861F6
:100D700000206062012084F82000002049E7000084
:100D800010B586B00446142101A8FFF744FB23499F
:100D9000206888423FD100BF0020009020480068B2
:100DA00040F000701E4908600846006800F00070BE
:100DB000009000BF00BF00BF00200090184810380E
:100DC000006840F0080016491039086008460068BD
:100DD00000F00800009000BF00BF03200190022037
:100DE000029000200390032004900920059001A99F
:100DF0000C4800F0E7FA00220521142000F09EFCC8
:100E0000142000F08BFC00220521152000F096FC38
:100E1000152000F083FC06B010BD00000064004007
:100E200040380240000C02407047000010B52DED24
:100E3000088B88B00446E0492068884279D1DF4BAE
:100E400001AA00212046FFF7FCFC0198A0F2012036
:100E500005286DD2DFE800F0036EB1FCFB00D74837
:100E60004078D649097840EA012000B2D449088088
:100E7000D248C078D149897840EA012000B2D049EF
:100E80004880CE484079CD49097940EA012000B236
:100E9000CB498880C9488079C8800846B0F90000ED
:100EA000C849B1F90010401A10F5805F06DAC4484D
:100EB000008800F5005000B2C1490880C048B0F970
:100EC0000000C049B1F90010401AB0F5805F06DD9E
:100ED000BB480088A0F5005000B2B9490880B84866
:100EE0000088B8490880B649B1F90010A1F6485009
:100EF00002F0FAFD41EC1B0B9FEDB30B53EC102BF2
:100F000002F046FE41EC1A0B9FEDB10B53EC102B97
:100F100002F092FC41EC190B9FEDAF0B53EC102B40
:100F200002F0D6FB41EC180B02F0A0FBAC490860C4
:100F30003DE13DE1A1484078A049097840EA01201F
:100F400000B2A84908809D48C0789C49897840EA49
:100F5000012000B2A349488098484079974909790F
:100F600040EA012000B29F49888094488079C88077
:100F7000B1F90010A1F6D86002F0B6FD41EC1B0BF0
:100F80009FED990B53EC102B02F002FE41EC1A0B73
:100F90009FED970B53EC102B02F04EFC41EC190B1C
:100FA0009FED950B53EC102B02F092FB41EC180BCC
:100FB00002F05CFB92490860F9E0804840787F4984
:100FC000097840EA012000B28E4908807B48C07849
:100FD0007A49897840EA012000B28A4948807748F6
:100FE00040797649097940EA012000B28549888034
:100FF00072488079C8800846B0F900008249B1F98A
:101000000010401A10F5805F06DA7E48008800F56F
:10101000005000B27B4908807A48B0F900007A4954
:10102000B1F90010401AB0F5805F06DD7548008800
:10103000A0F5005000B273490880724800887249D8
:1010400008807049B1F90010A1F5FA7001E08BE059
:1010500020E002F049FD41EC1B0B9FED6C0B53ECC3
:10106000102B02F095FD41EC1A0B9FED6A0B53EC2F
:10107000102B02F0E1FB41EC190B9FED680B53ECD8
:10108000102B02F025FB41EC180B02F0EFFA65493A
:1010900008608CE0494840784849097840EA0120D6
:1010A00000B2614908804548C0784449897840EADF
:1010B000012000B25C494880404840793F490979A5
:1010C00040EA012000B2584988803C488079C880B5
:1010D0000846B0F900005549B1F90010401A10F562
:1010E000805F06DA5048008800F5005000B24E4993
:1010F00008804D48B0F900004C49B1F90010401A81
:10110000B0F5805F06DD48480088A0F5005000B2C9
:101110004549088044480088444908804249B1F95B
:101120000010A1F6E44002F0DFFC41EC1B0B9FED48
:10113000400B53EC102B02F02BFD41EC1A0B9FEDF2
:101140003E0B53EC102B02F077FB41EC190B9FED9B
:101150003C0B53EC102B02F0BBFA41EC180B02F0E5
:1011600085FA3949086022E01449384801F096FAB6
:10117000124840781149097840EA012000B2344908
:1011800008800E48C0780D49897840EA012000B2F5
:101190002F494880094840790849097940EA0120E7
:1011A00000B22B49888005488079C88000BF00BF05
:1011B00008B0BDEC088B10BD006400409600002014
:1011C00064000020A0000020CA54C1A8A4CE0EC014
:1011D000000000000038B840B003E78C28EDFB3F6A
:1011E000AC0000206C000020C0EC9E3C2CD4FEBF64
:1011F00000000000008CA440000000000000FB3F45
:10120000A4000020740000209E000020EA2631087F
:10121000AC1CF8BF000000000088A34093180456DF
:101220000E2DECBFA80000207C000020A2000020B2
:101230006E3480B7408209C0000000000000A9C0E1
:1012400045D8F0F44A59F63FB0000020780200205B
:101250008400002070477047704770B5044694F8CA
:101260002000012822D1022084F820002068006894
:1012700020F001002168086000F0A6F905460DE0A5
:1012800000F0A2F9401B0A2808D9606A40F4003037
:101290006062052084F82000012070BD206840684D
:1012A00000F001000028EBD16062F6E7606A40F4CC
:1012B000002060620120F0E7704770477047704778
:1012C00070477047704770B50446A56D00F07CF913
:1012D000064694F83500022808D08020606500BFDB
:1012E000002084F8340000BF012070BD2068006831
:1012F00020F01600216808602068406920F0800016
:1013000021684861206C08B9A06C28B12068006889
:1013100020F00800216808602068006820F00100C3
:101320002168086010E000F04FF9801B05280BD9F8
:1013300020206065032084F8350000BF002084F879
:10134000340000BF0320D0E72068006800F00100EF
:101350000028E8D194F85C103F208840A860012064
:1013600084F8350000BF002084F8340000BF00BFBF
:10137000BBE7014691F83500022803D0802048657C
:1013800001207047052081F835000868006820F0CA
:1013900001000A6810600020F3E7000070B5044601
:1013A00000F012F906462546681C10B10448007882
:1013B000054400BF00F008F9801BA842FAD370BDB5
:1013C00018000020F8B502460B4600250024002036
:1013D0000021D6E0012606FA01F51E6806EA05049A
:1013E000AC4274D11E7906F00306012E04D01E799A
:1013F00006F00306022E13D190684F000326BE406C
:10140000B0434F00DE68BE40304390605068012614
:101410008E40B0431E79C6F300168E4030435060B4
:101420001E7906F00306032E09D0D0684F0003266C
:10143000BE40B0434F009E68BE403043D0601E792E
:1014400006F00306022E13D1CF0802F1200656F84B
:1014500027004E07F70E0F26BE40B0434F07FF0E82
:101460001E69BE403043CF0802F1200646F827002F
:1014700010684F000326BE40B0431E7906F00306F5
:101480004F00BE40304310605E6806F44036002EC8
:1014900076D000BF002600963C4E366846F4804663
:1014A0003A4F3E603E46366806F48046009600BFDE
:1014B00000BF374E8F0856F827008E07370F0F26CC
:1014C000BE40B043334EB24202D1002624E057E082
:1014D000314EB24201D101261EE0304EB24201D15E
:1014E000022619E02E4EB24201D1032614E02D4E01
:1014F000B24201D104260FE02B4EB24201D10526A3
:101500000AE02A4EB24201D1062605E0284EB24238
:1015100001D1072600E008268F073F0FBE40304369
:101520001B4E8F0846F82700224E3068A0435E68A5
:1015300006F4801606B120431E4E3060361D30681A
:10154000A0435E6806F4001606B12043194E361D0E
:101550003060184E361F3068A0435E6806F40036CF
:1015600006B12043134E361F3060361F3068A0434B
:101570005E6806F4803606B120430E4E083E3060A9
:10158000491C1029FFF426AFF8BD00004438024082
:1015900008380140000002400004024000080240F8
:1015A000000C0240001002400014024000180240EB
:1015B000001C0240083C0140024613690B400BB17D
:1015C000012000E0002070470148006870470000DB
:1015D00010000020034800680349097808440149C5
:1015E00008607047100000201800002010B50D485A
:1015F000006840F400700B4908600846006840F439
:10160000806008600846006840F48070086003202D
:1016100000F0D2F8052000F007F800F055F800209F
:1016200010BD0000003C0240F0B587B00446002623
:10163000002700BF002000901E48006840F0010015
:101640001C4908600846006800F00100009000BFD7
:1016500000BF01A902A800F085F900F0BBF946001F
:101660001548B6FBF0F0471E14481549086040F2D3
:10167000E7311348C16047600021016181608161E9
:1016800000F060FC054695B90D4800F08FFC05465A
:101690006DB9192000F042F8102C07D20022214623
:1016A000192000F04BF80748046000E001252846A7
:1016B00007B0F0BD4438024040420F000000014036
:1016C000240100201400002008B500BF0020009075
:1016D0001148006840F480400F49086008460068DF
:1016E00000F48040009000BF00BF00BF00200090C9
:1016F000081F006840F08050091F08600846006815
:1017000000F08050009000BF00BF00220F21901E0B
:1017100000F014F808BD00004438024001460846B5
:10172000002809DB00F01F0301229A4043099B00B7
:1017300003F1E023C3F8002100BF70472DE9F05FFB
:1017400080460D461646002701F0B4FD074639468F
:101750002A46334601F00700C0F1070ABAF1040F28
:1017600002D94FF0040A01E0C0F1070AD14600F1A6
:10177000040ABAF1070F02D24FF0000A01E0A0F10B
:10178000030AD4464FF0010A0AFA09FAAAF1010A3B
:101790000AEA020A0AFA0CFA4FF0010B0BFA0CFBE8
:1017A000ABF1010B0BEA030B4AEA0B04214640465E
:1017B00001F088FDBDE8F09F00BF00F00702064B76
:1017C00019684FF6FF031940044B0B4343EA02210B
:1017D000014B196000BF70470CED00E00000FA05F6
:1017E00070B504460D460CB9012070BD584800681C
:1017F00000F00700A84209D255490D70084600685C
:1018000000F00700A84201D00120EEE7207800F0A8
:10181000020002281DD1207800F00400042805D120
:101820004C48006840F4E0504A490860207800F0D5
:101830000800082805D14748006840F46040454941
:1018400008604448006820F0F000A168084341495E
:101850000860207800F00100A8B36068012807D173
:101860003C4808380068C0F34040B8B90120BCE7E4
:101870006068022802D06068032807D1354808381C
:101880000068C0F3406048B90120AEE7314808382D
:101890000068C0F3400008B90120A6E72D480068A1
:1018A00020F00300616808432A490860FFF78CFEB6
:1018B000064609E0FFF788FE801B41F28831884226
:1018C00002D9032091E707E02248006800F00C00ED
:1018D0006168B0EB810FEDD11D48006800F0070092
:1018E000A84209D91A490D700846006800F007009F
:1018F000A84201D0012078E7207800F004000428F5
:1019000007D11448006820F4E050E1680843114909
:101910000860207800F00800082808D10D48006809
:1019200020F46040216940EAC1000A49086000F0E3
:1019300061F808490968C1F30311074A515CC840BE
:101940000649086006480068FFF76EFE00204CE775
:10195000003C024008380240E03F00081C00002024
:10196000140000200F2202600D4A126802F00302E8
:1019700042600B4A126802F0F0028260084A126864
:1019800002F4E052C260064A126802F46042D208D1
:101990000261044A126802F007020A607047000000
:1019A00008380240003C02400148006870470000CF
:1019B0001C00002000B5FFF7F7FF04490968C1F3D8
:1019C0008221034A515CC84000BD00000838024033
:1019D000F03F000800B5FFF7E7FF04490968C1F3CD
:1019E0004231034A515CC84000BD00000838024043
:1019F000F03F00082DE9F047002400250026A1460D
:101A00002548006800F00C0020B1042805D0082803
:101A10003AD105E0DFF8849039E0DFF8849036E0D1
:101A20001D48001F006800F03F041B48001F0068AD
:101A300000F4800078B11A481749091F0968C1F3FA
:101A40008811A0FB01700146224600233846FEF7AC
:101A50006BFC05460EE011480F49091F0968C1F3E8
:101A60008811A0FB01700146224600233846FEF78C
:101A70005BFC05460848001F0068C0F30140401C9D
:101A80004600B5FBF6F902E0DFF8109000BF00BF9A
:101A90004846BDE8F0870000083802400024F40002
:101AA000001BB700F8B504460CB90120F8BD20783A
:101AB00000F00100002874D0F948006800F00C0024
:101AC00004280DD0F648006800F00C00082813D157
:101AD000F348001F006800F48000B0F5800F0BD1C0
:101AE000EF4808380068C0F34040002859D06068CB
:101AF000002856D10120D9E700BF6068B0F5803FCB
:101B000008D1E7480838006840F48030E4490839D3
:101B100008601EE06068B0F5A02F0DD1E0480838DD
:101B2000006840F48020DE490839086008460068F3
:101B300040F4803008600CE0D9480838006820F490
:101B40008030D749083908600846006820F48020B2
:101B5000086000BF606890B1FFF736FD054606E0FB
:101B6000FFF732FD401B642801D903209EE7CC48D3
:101B700008380068C0F340400028F1D011E0FFF7BA
:101B800023FD054606E0FFF71FFD401B642801D931
:101B900003208BE7C24808380068C0F340400028A3
:101BA000F1D1207800F0020002285FD1BC48006823
:101BB00000F00C0058B1BA48006800F00C0008288A
:101BC0001CD1B748001F006800F48000B0B9B448C9
:101BD00008380068C0F3400020B1E068012801D057
:101BE000012063E7AE480838006820F0F80021695A
:101BF00040EAC100AA490839086037E0E06800B34C
:101C00000120A8490860FFF7DFFC054606E0FFF762
:101C1000DBFC401B022801D9032047E7A048083815
:101C20000068C0F340000028F1D09D4808380068E3
:101C300020F0F800216940EAC1009949083908609C
:101C400014E0002097490860FFF7BEFC054606E057
:101C5000FFF7BAFC401B022801D9032026E7904871
:101C600008380068C0F340000028F1D1207800F067
:101C7000080008282CD16069A8B101208A490860B1
:101C8000FFF7A2FC054606E0FFF79EFC401B02287A
:101C900001D903200AE782486C300068C0F3400095
:101CA0000028F1D014E000207F490860FFF78CFC89
:101CB000054606E0FFF788FC401B022801D90320F7
:101CC000F4E677486C300068C0F340000028F1D19A
:101CD000207800F00400042870D1002770483830C4
:101CE000006800F0805090B900BF002000906C4860
:101CF0003830006840F08050694938310860084643
:101D0000006800F08050009000BF00BF01276748C6
:101D1000006800F48070B0B96448006840F48070D6
:101D200062490860FFF750FC054606E0FFF74CFCEF
:101D3000401B022801D90320B8E65C48006800F483
:101D400080700028F2D000BFA068012808D1544854
:101D50006830006840F001005149683108601DE0BA
:101D6000A06805280DD14E486830006840F0040096
:101D70004B49683108600846006840F0010008607F
:101D80000CE047486830006820F0010044496831A1
:101D900008600846006820F00400086000BFA068E2
:101DA000A8B1FFF711FC054609E0FFF70DFC401B49
:101DB00041F28831884202D9032077E626E038488C
:101DC00068300068C0F340000028EED013E0FFF751
:101DD000FBFB054608E0FFF7F7FB401B41F28831AB
:101DE000884201D9032061E62D4868300068C0F3BD
:101DF00040000028EFD1012F07D129483830006872
:101E000020F0805026493831086000BFA0690028C2
:101E100045D02348006800F00C0008285DD0A06978
:101E2000022845D100201F490866FFF7CDFB054673
:101E300006E0FFF7C9FB401B022801D9032035E665
:101E4000174808380068C0F340600028F1D1D4E991
:101E500007010843616A40EA81110122A06AC2EBCE
:101E6000500041EA00412C20005D41EA00600C492D
:101E7000091F086001200B490866FFF7A5FB05460E
:101E800006E0FFF7A1FB401B022801D903200DE665
:101E9000034808380068C0F340600028F1D049E0EA
:101EA0000838024000004742800E47420070004060
:101EB000002021490866FFF787FB054606E0FFF78B
:101EC00083FB401B022801D90320EFE51B48006873
:101ED000C0F340600028F2D12CE0A069012800D1B5
:101EE000E4E51648001D0668A069012820D006F424
:101EF0008001E06981421BD106F03F01206A8142E6
:101F000016D147F6C0703040616AB0EB811F0FD127
:101F100006F440310122A06AC2EB5000B1EB004F41
:101F200006D106F070612C20005DB1EB006F01D08E
:101F30000120BBE50020B9E500004742003802401F
:101F40007047704710B504460CB9012010BD94F8D5
:101F50003D0028B9002084F83C00204600F025F818
:101F6000022084F83D00211D206800F01BFF0120A5
:101F700084F8460000BF84F83E0001213F2001554F
:101F8000402001554120015500BF00BF012084F8C9
:101F9000420043200155442001554520015500BF12
:101FA000012084F83D000020D0E77047014691F8F9
:101FB0003D00012801D001207047022081F83D003A
:101FC0000868C06840F001000B68D8601A4B0868C8
:101FD00098421BD00868B0F1804F17D0174B0868A3
:101FE000984213D0164B086898420FD0154B0868DA
:101FF00098420BD0144B0868984207D0134B0868DE
:10200000984203D0124B086898420CD10868806847
:1020100000F00702062A0CD00868006840F00100B2
:102020000B68186005E00868006840F001000B6864
:1020300018600020C0E700000000014000040040DC
:1020400000080040000C0040000401400040014036
:1020500000180040704710B5044620680069C0F3BE
:102060004000D8B12068C068C0F34000B0B16FF044
:10207000020021680861012020772068806900F053
:10208000030018B12046FFF7E5FF05E0204600F009
:10209000ADF8204600F0ABF80020207720680069FA
:1020A000C0F38000D8B12068C068C0F38000B0B130
:1020B0006FF00400216808610220207720688069A1
:1020C00000F4407018B12046FFF7C4FF05E0204639
:1020D00000F08CF8204600F08AF800202077206875
:1020E0000069C0F3C000D8B12068C068C0F3C00068
:1020F000B0B16FF0080021680861042020772068E3
:10210000C06900F0030018B12046FFF7A3FF05E007
:10211000204600F06BF8204600F069F80020207798
:1021200020680069C0F30010D8B12068C068C0F30F
:102130000010B0B16FF0100021680861082020770E
:102140002068C06900F4407018B12046FFF782FF94
:1021500005E0204600F04AF8204600F048F800204C
:1021600020772068006900F0010058B12068C0683D
:1021700000F0010030B16FF00100216808612046D5
:1021800000F036F820680069C0F3C01058B120682C
:10219000C068C0F3C01030B16FF0800021680861E2
:1021A0002046FFF7CDFE20680069C0F3801058B1CB
:1021B0002068C068C0F3801030B16FF04000216823
:1021C0000861204600F020F820680069C0F3401044
:1021D00058B12068C068C0F3401030B16FF02000E3
:1021E000216808612046FFF7ACFE10BD70477047BC
:1021F00010B5044603492068884201D1FFF7EAF987
:1022000010BD00000000014070477047704700009B
:102210002DE9F84F0446206805682068C6682068E4
:1022200047694FF00009CA4605F00F09B9F1000FE0
:102230000AD105F0200038B106F0200020B1204678
:1022400000F06CFEBDE8F88FB9F1000F7CD007F00C
:10225000010018B906F49070002875D005F001004F
:1022600030B106F4807018B1206C40F00100206499
:1022700005F0040030B107F0010018B1206C40F007
:102280000200206405F0020030B107F0010018B12F
:10229000206C40F00400206405F0080048B106F00E
:1022A000200010B907F0010018B1206C40F00800C0
:1022B0002064206C002846D005F0200028B106F0EC
:1022C000200010B1204600F029FE20684069C0F3CC
:1022D000801A206C00F0080010B9BAF1000F2DD060
:1022E000204600F0D5FD2068406900F040004028FD
:1022F00020D100BF00BF2168143151E8001F21F038
:1023000040002168143141E80002002AF3D100BFE7
:10231000A06B50B17548A16B0865A06BFFF729F859
:1023200088B1A06B016D88470DE02046FFF76EFF76
:1023300009E009E02046FFF769FF04E02046FFF7C7
:1023400065FF002020647DE7206B012876D105F031
:102350001000002872D006F010000028FAD000BF4C
:10236000002000902068006800902068406800907D
:1023700000BF00BF2068406900F0400040285ED1E7
:10238000A06B006840681FFA80F8B8F1000F54D0C5
:10239000A08D404551DDA4F82E80A06BC069B0F53A
:1023A000807F43D000BF00BF21680C3151E8001F7F
:1023B00021F4807021680C3141E80002002AF3D139
:1023C00000BF00BF00BF2168143151E8001F21F099
:1023D00001002168143141E80002002AF3D100BF56
:1023E00000BF00BF2168143151E8001F21F04000F8
:1023F0002168143141E80002002AF3D100BF2020F7
:1024000084F83E000020206300BF00BF21680C312B
:1024100051E8001F21F0100021680C3141E8000252
:10242000002AF3D100BFA06BFEF74DFFA08DE28D17
:10243000801A81B22046FFF7E8FE03E740E0A08D56
:10244000E18D401A1FFA80F8E08DC0B3B8F1000F9B
:1024500035D000BF00BF21680C3151E8001F21F4C6
:10246000907021680C3141E80002002AF3D100BFCE
:1024700000BF00BF2168143151E8001F21F00100A6
:102480002168143141E80002002AF3D100BF202066
:1024900084F83E000020206300BF00BF21680C319B
:1024A00051E8001F21F0100021680C3141E80002C2
:1024B000002AF3D100BF41462046FFF7A6FEC1E641
:1024C00005F0800030B106F0800018B1204600F021
:1024D000B7FEB7E605F0400030B106F0400018B195
:1024E000204600F00BFDADE600BFABE67D2E0008F8
:1024F00010B504460CB9012010BDA06900B100E080
:1025000000BF94F83D0028B9002084F83C00204624
:1025100000F028F8242084F83D002068C06820F4EA
:1025200000502168C860204600F074FD20680069F2
:1025300020F49040216808612068406920F02A005A
:10254000216848612068C06840F400502168C86074
:1025500000202064202084F83D0084F83E00002004
:10256000CAE7000010B586B00446142101A8FDF7A3
:1025700052FF2E492068884255D100BF00200090AC
:102580002B48006840F010002949086008460068A0
:1025900000F01000009000BF00BF00BF00200090BE
:1025A00023481438006840F00200214914390860BB
:1025B0000846006800F00200009000BF00BF00BFA6
:1025C000002000900846006840F0010008600846BE
:1025D000006800F00100009000BF00BF8020019063
:1025E0000220029000200390032004900720059011
:1025F00001A91048FEF7E6FE4FF40070019002209A
:10260000029000200390032004900720059001A968
:102610000948FEF7D7FE002205212520FFF78EF896
:102620002520FFF77BF806B010BD00000010014028
:1026300044380240000402400000024070477047E6
:1026400000BFFEE700B970470160828000238371FC
:10265000836000BFF7E7000070B50446A1882068DA
:10266000FEF7AAFF05468DB90B480078012803D173
:10267000A0710020A0600CE0A0680A30A060A068F3
:10268000B0F5FA6F05D30220A07102E00020A0711E
:10269000A0600148057070BDB400002070B52DED3C
:1026A000088B04460D4669782A7801EB022001F078
:1026B0001BFA41EC1A0B9FED680B53EC102B01F049
:1026C00067FA41EC190B9FED660B53EC102B01F0F0
:1026D0005FFA41EC180B9FED640B53EC102B01F0EB
:1026E0008BFBC4E91001E978AA7801EB022108B25A
:1026F00001F0FAF941EC190B9FED5D0B53EC102B37
:1027000001F046FA41EC180B9FED5B0B53EC102BDC
:1027100001F092F8C4E90E0169792A7901EB0221EE
:1027200008B201F0E1F941EC190B9FED550B53ECA8
:10273000102B01F02DFA41EC180B9FED530B53ECCD
:10274000102B01F025FAC4E90C01A87984F82800BF
:1027500094F8600080B994ED100B84ED1A0B94EDA1
:10276000100B84ED120B9FED4A0B84ED160B00202D
:102770002065012084F8600094ED122BB0EE420A2F
:10278000F0EE620A94ED102BB0EE421AF0EE621AEF
:1027900053EC102B51EC110B01F02EFB41EC180BFC
:1027A0009FED3D0B53EC102B01F0B6F902D2206DDA
:1027B000401C206594ED122BB0EE420AF0EE620A46
:1027C00094ED102BB0EE421AF0EE621A53EC102B7F
:1027D00051EC110B01F010FB41EC180B9FED300B8D
:1027E00053EC102B01F0D2FA02D2206D401E20656E
:1027F000206D01F079F941EC1B0B9FED1B0B53ECA5
:10280000102B01F0C5F941EC1A0B9FED270B53EC8F
:10281000102B01F0BDF941EC190B94ED101BB0EE3B
:10282000410AF0EE610A53EC102B00F051FF41EC2D
:10283000180B94ED1A1BB0EE410AF0EE610A53EC4E
:10284000102B01F0D9FAC4E9160194ED100B84EDB8
:10285000120BBDEC088B70BD012DA005B480A63F06
:102860001839359D46DF913F4AD8124DFB2109406A
:102870004AD8124DFB2119400000000000004E40D4
:10288000000000000000543FEAFF4199A1FE8F3F85
:10289000000000000000000058D04929C7280EC0E1
:1028A00058D04929C7280E40000000000000004011
:1028B00010B50F480F4908600620486000210D48F8
:1028C0008160C1604FF40031016109014161002163
:1028D0000176417681760121C176002101770121BF
:1028E0004177FEF792F908B1FDF755FE10BD0000E3
:1028F00000640040B800002000B587B0142102A891
:10290000FDF789FD00BF002001903E48006840F0BF
:1029100001003C4908600846006800F00100019091
:1029200000BF00BF00BF002001900846006840F0D3
:10293000020008600846006800F00200019000BF35
:1029400000BF00BF002001900846006840F008006A
:1029500008600846006800F00800019000BF00BF52
:1029600000BF002001900846006840F004000860A5
:102970000846006800F00400019000BF00BF00BFDF
:10298000002001900846006840F08000086008467A
:10299000006800F08000019000BF00BF00BF002071
:1029A00001900846006840F0100008600846006882
:1029B00000F01000019000BF00BF01200290002035
:1029C00003900120049002A90F48FEF7FBFC4FF48E
:1029D00094400290002003900120049002A90B482B
:1029E000FEF7F0FC8020029002200390002004906B
:1029F000032005900520069002A90348FEF7E2FC9B
:102A000007B000BD30380240000002400010024014
:102A100010B50B480B4908604FF4E13048600021C5
:102A200008488160C16001610C2141610021816120
:102A3000C161FFF75DFD08B1FDF7ADFD10BD000000
:102A400000100140E000002000BFFEE700BFFEE7ED
:102A5000B0EE401A10B99FED790A704790ED100A58
:102A600080ED110A90ED0F0A80ED100AC0ED060A04
:102A700080ED071A30EEC10A80ED0F0A01780029B7
:102A800075D190ED010AD0ED0F1A20EE210A80EDEC
:102A9000090A90ED0A0AD0ED021A90ED0F2A01EE14
:102AA000820A80ED0A0A90ED0D0A80ED0E0A90ED83
:102AB0000C0A80ED0D0A90ED0F0AD0ED101A30EEE1
:102AC000610A80ED0C0A90ED030AD0ED0C1A20EE9D
:102AD000210A80ED0B0A90ED0A0AD0ED051AB4EE3A
:102AE000E10AF1EE10FA04DD90ED050A80ED0A0A24
:102AF00010E090ED0A0AD0ED051AF1EE611AB4EE7D
:102B0000E10AF1EE10FA05D290ED050AB1EE400AA5
:102B100080ED0A0A90ED090AD0ED0A1A30EE210A7A
:102B2000D0ED0B1A30EE210A80ED080A90ED080A6C
:102B3000D0ED041AB4EEE10AF1EE10FA04DD90EDE6
:102B4000040A80ED080A76E090ED080AD0ED041A38
:102B5000F1EE611AB4EEE10AF1EE10FA6BD290EDEB
:102B6000040AB1EE400A80ED080A64E0FFE701784C
:102B70000A2960D190ED0F0AD0ED101A30EE610AEB
:102B8000D0ED011A20EE210A80ED090A90ED020A2B
:102B9000D0ED0F1A20EE210A80ED0A0A90ED0D0A01
:102BA00080ED0E0A90ED0C0A80ED0D0A90ED0F0AF3
:102BB000D0ED101AB0EE002A02EE610AD0ED111A23
:102BC00030EE210A80ED0C0A90ED030AD0ED0C1ACC
:102BD00020EE210A80ED0B0A90ED090AD0ED0A1AC9
:102BE00030EE210AD0ED0B1A30EE210AD0ED081A92
:102BF00030EE210A80ED080A90ED080AD0ED041AA3
:102C0000B4EEE10AF1EE10FA04DD90ED040A80ED75
:102C1000080A10E090ED080AD0ED041AF1EE611AEE
:102C2000B4EEE10AF1EE10FA05D290ED040AB1EE2D
:102C3000400A80ED080A90ED080A0EE70000000047
:102C400000B97047017080ED010AC0ED020A80ED05
:102C5000031AC0ED041A80ED052ADFED0E2AC0ED3F
:102C60000E2AC0ED0D2AC0ED0C2ADFED0A2AC0EDB8
:102C7000082AC0ED0B2AC0ED0A2AC0ED092AC0EDD2
:102C8000112AC0ED102AC0ED0F2A012280F8482039
:102C900000BFD6E70000000010B500BF502080F351
:102CA0001188BFF34F8FBFF36F8F00BF00F03AFC66
:102CB00018B14FF080500449086000BF002080F335
:102CC000118800BF10BD000004ED00E000B593B016
:102CD000302107A8FDF79FFB142102A8FDF79BFBFD
:102CE00000BF002001902448006840F08050224935
:102CF00008600846006800F08050019000BF00BFE7
:102D000000BF002001901D48006840F480401B492E
:102D100008600846006800F48040019000BF00BFD2
:102D2000012007900004089002200D9041050E91AB
:102D300006210F91A82110910221119104211291D5
:102D400007A8FEF7AFFE08B1FDF725FC0F200290A3
:102D500002200390002004904FF4A05005904FF4FF
:102D600080500690052102A8FEF73AFD08B1FDF754
:102D700012FC13B000BD000040380240007000405B
:102D80000348006840F47000014908607047000083
:102D900088ED00E010B50248FFF75DF910BD0000B6
:102DA0002401002010B50268294B98420ED0B0F1E2
:102DB000804F0BD0274B984208D0274B984205D024
:102DC000264B984202D0264B984203D122F0700243
:102DD0004B681A431E4B984220D0B0F1804F1DD053
:102DE0001C4B98421AD01C4B984217D01B4B984250
:102DF00014D01B4B984211D01A4B98420ED01A4B4C
:102E000098420BD0194B984208D0194B984205D0E4
:102E1000184B984202D0184B984203D122F44072CA
:102E2000CB681A4322F080034C6943EA0402026033
:102E30008B68C3620B688362054B984202D0084BD3
:102E4000984201D10B6903630123436110BD000067
:102E5000000001400004004000080040000C004059
:102E6000000401400040014000440140004801408E
:102E700000180040001C00400020004070B50546CE
:102E8000AC6B0020E085E0842046FFF7BFF970BD01
:102E900000BF00BF02680C3252E8002F22F490718C
:102EA00002680C3242E80013002BF3D100BF00BFD0
:102EB00000BF0268143252E8002F22F001010268BC
:102EC000143242E80013002BF3D100BF016B01293B
:102ED0000ED100BF00BF02680C3252E8002F22F072
:102EE000100102680C3242E80013002BF3D100BF3E
:102EF000202180F83E1000210163704710B5044680
:102F00002068C06820F040002168C860202084F854
:102F10003D002046FFF793FB002010BDF8B50446A6
:102F200094F83E00222873D1A068B0F5805F0CD1E0
:102F3000206950B90025A66A20684068C0F30800DF
:102F40003080A06A801CA06215E0A56A0026A068F7
:102F5000B0F5805F03D0A06828B9206918B920684F
:102F60004068287004E02068406800F07F00287006
:102F7000A06A401CA062E08D401E80B2E08500285F
:102F800044D12068C06820F020002168C860206813
:102F9000C06820F480702168C8602068406920F013
:102FA000010021684861202084F83E00206B012840
:102FB00026D10020206300BF00BF21680C3151E8FA
:102FC000001F21F0100021680C3141E80002002AA6
:102FD000F3D100BF2068006800F0100010280AD16B
:102FE00000BF0020009020680068009020684068C2
:102FF000009000BF00BFA18D2046FFF706F902E058
:103000002046FFF71BFB0020F8BD01E00020FBE796
:103010000220F9E72DE9F84F04462068006920F402
:103020004050E1680843216808612169A0680843AD
:1030300061690843E169084300902068C06849F26B
:103040000C618843009908432168C8602068406982
:1030500020F44070A16908432168486176492068DE
:10306000884203D075492068884203D1FEF7B2FC3C
:10307000814602E0FEF79EFC8146E069B0F5004F14
:103080006CD102206168A0FB015003461920A9FB06
:10309000007001462A463846FDF746F96421B0FB28
:1030A000F1F04FEA001A02206168A0FB01510B46C3
:1030B0001920A9FB00712A463846FDF735F98346E9
:1030C00002206168A0FB015003461920A9FB007192
:1030D0002A463846FDF728F96421B0FBF1F000EBF1
:1030E000C00101EB0010ABEB8000322101EBC0000E
:1030F0006421B0FBF1F000F0F8000AEB400A022076
:103100006168A0FB015003461920A9FB007001462D
:103110002A463846FDF708F9834602206168A0FB7D
:10312000015003461920A9FB00712A463846FDF7D5
:10313000FBF86421B0FBF1F000EBC00101EB0010E3
:10314000ABEB8000322101EBC0006421B0FBF1F059
:1031500000F007005044216888606AE0042061683C
:10316000A0FB015003461920A9FB007001462A4626
:103170003846FDF7D9F8824604206168A0FB01506B
:1031800003461920A9FB007001462A463846FDF780
:10319000CBF86421B0FBF1F000EBC00101EB0010B3
:1031A000AAEB8000322101EB00106421B0FBF1F0AA
:1031B00000F0F00A04206168A0FB017003461920AA
:1031C000A9FB00513A462846FDF7AEF86421B0FB52
:1031D000F1F00AEB001A04206168A0FB01510B46D4
:1031E0001920A9FB00712A463846FDF79DF8834651
:1031F00004206168A0FB015003461920A9FB007060
:1032000001462A463846FDF78FF86421B0FBF1F0FD
:1032100000EBC00101EB0010ABEB8000322101EBB1
:1032200000106421B0FBF1F000F00F005044216861
:103230008860BDE8F88F00000010014000140140D4
:10324000014691F83D00212828D18868B0F5805FBB
:103250000BD1086948B90A6A1088C0F308000B68E6
:103260005860086A801C086205E00B6A581C0862F6
:1032700018780B685860C88C401E80B2C88458B952
:103280000868C06820F080000B68D8600868C068D3
:1032900040F040000B68D860002070470220FCE737
:1032A00010B50248FEF7B4FF10BD0000E00000209A
:1032B00000BFFEE702480068C0F30220704700002C
:1032C0000CED00E010B5002804DB0A07130E054AD8
:1032D000135406E00A07140E034A00F00F031B1FE5
:1032E000D45410BD00E400E018ED00E02DED028B99
:1032F00096B0FEF77BF9FFF7E9FCFFF7FDFAFFF761
:1033000087FBFFF7D5FA0122284913A8FFF79AF99E
:1033100000F05AF8FDF720F99FED252ADFED241A79
:103320009FED241ADFED230AB3EE040A002168465C
:10333000FFF786FC39E013A8FFF78EF99DF85200DD
:10334000012807D11C48007820B91C480068404279
:103350001A4908609DF8520017490870174890ED07
:10336000000AB8EEC00ADFED160A20EE208A1548E2
:10337000B0F9020000EE900AF8EEE00AB0EE600A42
:10338000F0EE480A6846FFF763FB9DED080ABDEEC4
:10339000C00A10EE101A08B200231A461946FDF7AB
:1033A000B1F80A20FDF7FAFF00BFC4E700000240B1
:1033B00000007A44000000000C00002008000020FB
:1033C00000004C446400002010B59FED0E2ADFED94
:1033D0000E1A9FED0E1ADFED0E0AB2EE040A00215E
:1033E0000C48FFF72DFC9FED0C2ADFED0C1A9FED2A
:1033F000081ADFED060A9FED080A00210848FFF7CA
:103400001FFC10BD0000FA4300007A44CDCCCC3D37
:1034100000000000F00200200000C84300409C456E
:103420003C0300200A490968096809B9012100E044
:10343000002121B14FF0FF31064A116006E0044936
:103440000968C968C868034A41681160704700008C
:10345000240000205000002001460A69D1E9013013
:103460009860D1E9010358605068884201D18868AA
:103470005060002008611068401E1060106870479E
:1034800042684A6093688B609368596091600861F4
:1034900003685B1C036070471D48006818B1012079
:1034A0001C49086032E000201A4908601A48006888
:1034B000B0FA80F0C0F11F0101EB8100174A52F809
:1034C000200008B1012000E0002050B900BF5020CA
:1034D00080F31188BFF34F8FBFF36F8F00BF00BF22
:1034E000FEE701EB81020D4B03EB8200426852685C
:1034F000426000F108024368934202D14268526878
:1035000042604268D268064B1A6000BF70470000F4
:103510005800002044000020380000206C010020EA
:10352000200000202DE9F0414FF0000844480068D9
:1035300000287CD143480068451C4248056015BB03
:1035400041480068006808B9012000E0002050B937
:1035500000BF502080F31188BFF34F8FBFF36F8FF0
:1035600000BF00BFFEE738480768384800683649A2
:1035700008603648076036480068401C34490860D7
:10358000FFF750FF00BF3348006885423CD300BFBF
:103590002D480068006808B9012000E0002020B133
:1035A0004FF0FF302B4908602DE027480068C068C5
:1035B000C4686668B54202D22648066023E0201D32
:1035C000FFF74AFFA06A18B104F11800FFF744FFA3
:1035D00094F82C10012088401F49096808431E49AF
:1035E0000860E16A01EB81011C4A02EB8100211DA8
:1035F000FFF746FF1A49E06A0968C96A8842C7D3DB
:103600004FF00108C4E700BF15480068C06A00EB2E
:103610008000124951F82000012801D94FF001081B
:103620001048006808B14FF0010805E0FFE70E48B8
:103630000068401C0C4908604046BDE8F08100006D
:103640005800002034000020240000202800002022
:103650004800002050000020380000206C010020AD
:1036600020000020440000204000002021F0004203
:10367000A2F16052B2F5801F01F0004328BFD2F1E1
:103680007F6C0BD95FEA001C43EAC20242EB507028
:1036900018BF704728BF20F001007047B2F5801FA7
:1036A000BCBF184670474FEA410C1CF5001F02D200
:1036B000084600F090BC70B500F014FB00000089D3
:1036C000FFF7F6BF4FF00040A0F580007047000004
:1036D00010B591EA030F48BF83F0004300F19483D3
:1036E000841A71EB030C05D2121943EB0C03001B77
:1036F00061EB0C01DFF824E14FEA1154A4EB135CF9
:103700001EEA430F18BF9EEA445F73D023EA0E03FC
:10371000DCF1200E21EA045143F4801332D322FA63
:103720000CFE10EB0E0023FA0CFE41EB0E01CCF167
:10373000200E03FA0EFE10EB0E0051F10001B1F560
:10374000801FCCF1200E32D201EB045112FA0EF29E
:10375000BDE8104058BF7047401C38BF5FEA4202C6
:1037600018BF7047002814BF20F0010041F100018C
:103770004FEA410313F5001F38BF7047A1F1C04164
:1037800000F0FEBA012A43EB0302ACF1200CDCF19D
:103790001F0E32BF4FF0000E23FA0CF310EB0300A4
:1037A00041EB0451B4EB115FD0D0A1EB045101F512
:1037B000801149085FEA300001EB04510ED350F14B
:1037C000000038BF12FA0EFE08D1BDE81040C9E76C
:1037D000401C38BF5FEA4202CAD1C3E7BDE81040CF
:1037E0004FEA410313F5001F38BF7047A1F1C041F4
:1037F00000F0C6BA9EEA445F08D011EA5E0FBDE849
:10380000104004BF01F0004100207047BDE81040A7
:1038100070B500F067FA00BF64FBBE3E0000E0FF39
:10382000491058BFC1F140415B1058BFC3F140433C
:103830008B42EFF3008070472DE9C04130B4DFF8D0
:10384000A0C23CEA111418BF3CEA131400F0EC804B
:1038500081EA03051CEA111444EAD57418BF1CEA76
:10386000131500F0C780A4EB05044FF0004545EAAE
:10387000C12145EAC32341EA505143EA525304F1BE
:103880007F74994204F500344FEAC0204FEAC22207
:1038900008BF904200F09C804FEA13650FF240167B
:1038A000765D4FEA134506FB05F7C7F1807706FB07
:1038B00007F74FEAD737A7FB03687642C8F5803889
:1038C000A7FB06CE38BFA8F1010807FB08E64FF0BA
:1038D000000EA6FB028CE6FB03CEDCF1000CCEF161
:1038E000004E38BFAEF1010EA6FB0C584FF000079A
:1038F0004FF00005E6FB0E87A1FB08C6A0FB07CE34
:1039000016EB0E0645F10005E1FB076515F1E04EEB
:103910007EBFA4F580345FEA46066D4116F180074C
:1039200045F100054FEA17274FEA066647EA0567A3
:10393000A6F1DE46B6F1805F4FEA15251FD938465D
:1039400024F0010C05EBC471BCF1FE6F01EB0C110E
:1039500002D8F0BCBDE8008124425CBF01F5801EA6
:103960009EEAC47F02D4F0BCBDE80081244238D472
:10397000F0BCA1F1C041BDE8004100F001BA4FEA3E
:10398000D22242EA43524FEAD323A7FB02864FEAF0
:10399000D02040EA415007FB03661EEA0E0F4FEAB3
:1039A000D12105FB026658BFA6EB0056B6EB0056C8
:1039B0004FEA520E4EEAC37E18EB0E0E56EB530E34
:1039C000BDD518EB02085E417F1C55F10005B6E736
:1039D0004FF480154FF000074FF000064FF000083D
:1039E000ADE7F0BC4FF0000001F1C04101F0004133
:1039F000BDE8008111EA0C1F0CEA131500D00CE0A1
:103A000013EA0C1F00F025804FF00000F0BC81EAA3
:103A1000030101F00041BDE80081F0BCBDE80041B8
:103A200081EA030100F0ACB9F0BCBDE8004170B51B
:103A300000F058F9097EFC3E00F007B881EA030166
:103A40004FF0000001F00041704781EA030100F0EF
:103A500097B9F0BCBDE800414FF000002149704724
:103A6000FFFDFBF9F7F5F4F2F0EEEDEBE9E8E6E443
:103A7000E3E1E0DEDDDBDAD8D7D5D4D3D1D0CFCDCA
:103A8000CCCBCAC8C7C6C5C4C2C1C0BFBEBDBCBB03
:103A9000BAB9B8B7B6B5B4B3B2B1B0AFAEADACABFE
:103AA000AAA9A8A8A7A6A5A4A3A3A2A1A09F9F9ED8
:103AB0009D9C9C9B9A99999897979695959493938A
:103AC000929191908F8F8E8E8D8C8C8B8B8A898921
:103AD00088888787868585848483838282818180A4
:103AE0000000FF070000F87F10F0004248BF40428E
:103AF000B0FA80F310FA03F10AD0C3F11D0303F505
:103B000080634FEA415002EB035202EBD121704730
:103B10004FF000007047000051EA030C17D41CF569
:103B2000801F58BFBCF5801F00F10680994218BF66
:103B3000704708BF9042704707D711F5801F58BFE4
:103B400013F5801F19D499427047894270471CF5BC
:103B5000801F08D5BCF5801FF7D58B4218BF704772
:103B600008BF824270474FF4001C1CEB410F38BF66
:103B70001CEB430F01D28B42704770B500F0B2F8D6
:103B8000922449004FF000514FF08053FFF748BE98
:103B9000DFF848C170B51CEA111E1EBF1CEA1315E0
:103BA0009EEA0C0F95EA0C0F00F06F8081EA030487
:103BB00023EA4C134EEAD47E21EA4C1141F48011E1
:103BC00043F48013AE44A1FB024CA0FB0365AEF1AD
:103BD0007F7E361955EB0C05A1FB034C4CF100031D
:103BE000A0FB021C16EB0C06654153F100030942D1
:103BF00018BF46F0010613F4007F0BD14FEA0331E2
:103C00004FEA0530340341EA155140EA16506FF08F
:103C100003020AE04FEAC3214FEAC520F40241EA59
:103C2000555140EA56506FF0020202EB2E4201EB72
:103C3000025585EACE710AD05FEA440C18BF24F021
:103C4000004450F1000041F1000120EAD47040F23C
:103C5000FE7C624500D270BDA84214BF4FF0804484
:103C60004FF04044002E08BF0024BEF1806FA8BF73
:103C7000A1F1C041BDE8704080F282804FF00000A9
:103C800001F1C04101F0004170479EEA0C0F0CEABF
:103C9000131518BF95EA0C0F06D04FF0000081EA0B
:103CA000030E0EF0004170BD00F01CF88900013ECB
:103CB00000F007B800F009B84FEA430C5FEA5C5C1B
:103CC00008D081EA030100F05BB84FEA410C5FEADB
:103CD0005C5CF6D14FF00000014970470000FF071F
:103CE0000000F87F0EF1020E2EF0030E5EF8046B5A
:103CF000364205D4012A43EB030515F5001F12D8FF
:103D0000012841EB010C1CF5001F0CD80ED14FEA25
:103D1000D17C15F5001F0CEB4C0C0CF1020C08BF0C
:103D20004CEBD37C04E04FF0080C01E04FEAD37C6D
:103D30000CEB4C0526FA05F606F00706B6F1040C66
:103D400006D20EEB860CBDE870404CF0010C6047CB
:103D5000DFE80CF0090B02024FF000414FF00000C9
:103D6000A1F5002170BD19461046012851EB010450
:103D700018BFD4F5001484BF002001F0004170BDCD
:103D80000808A0F500114FEA3101704753EA010C11
:103D900017D41CF5801F58BFBCF5801F00F10680AA
:103DA0008B4218BF704708BF8242704707D713F590
:103DB000801F58BF11F5801F19D48B4270479B425A
:103DC00070471CF5801F08D5BCF5801FF7D59942B8
:103DD00018BF704708BF904270474FF4001C1CEB9F
:103DE000430F38BF1CEB410F01D2994270470FB40B
:103DF0000CBC03BCFFF7C1BE10B591EA030F48BF6E
:103E000083F000433FF56CAC841A71EB030C07D2CE
:103E100012198CF0004C43EB0C03001B61EB0C01FE
:103E2000DFF8A4E14FEA1154A4EB135C1EEA430F40
:103E300018BF9EEA445F00F0B08023EA6E0352424E
:103E400021EA0451C3EB6E0338BF5B1EDCF1200E88
:103E500025D322FA0CFE10EB0E0043FA0CFE41EBC8
:103E60000E01CCF1200E03FA0EFE10EB0E0051F104
:103E70000001CCF1200E29D412FA0EF201EB04510C
:103E8000BDE8104058BF7047401C1CBFB2F1004F46
:103E9000704700280CBF491C20F00100704712EB4E
:103EA000020E43EB030218BF4FF0010E4EEA42022E
:103EB000ACF1200CDCF11E0E54D943FA0CFE10EBD1
:103EC0000E0051F1FF31CCF11E0ED5D50EF1010ED1
:103ED00012FA0EFE404141EB010101EB445C5FEA46
:103EE0005C5C10D910EBDE7001EB045138BFBEF101
:103EF000004FBDE8104018BF704700280CBF491C98
:103F000020F00100704730D24FEAD42C11F5001197
:103F100024F400641BD0B1FA81F20B3AA41AA41E57
:103F2000D2F12003914030FA03F31943904001EBA2
:103F3000CC71002C01EB0451BDE81040A8BF7047C4
:103F400001F1C0414FF0000001F000417047B0FAAC
:103F500080F310FA03F100D110BDE41A173C4805B4
:103F6000C90AE4E701EB045110BD491001EB04510B
:103F7000BDE810404FEA300002E04FF0000170470A
:103F80004A0008BF0042F8D0B2F5001F28BF7047B2
:103F900001F000414FF0000070479EEA445F07D0F7
:103FA00011EA5E0FBDE8104004BF002100207047F9
:103FB000BDE8104070B5FFF795FE00BF40DFF63E4C
:103FC00083F00041104670470000E0FF4FF0407062
:103FD000E1EE100A7047FF2141EAD050C00570475A
:103FE00000000000000000000102030406070809A9
:103FF0000000000001020304184000080000002037
:10400000B8000000C4010008D0400008B80000203B
:1040100030090000E001000800000000000000007E
:10402000010000000000000000000000100000007F
:10403000010000000024F400000000000000000067
:104040000000000000000000000000000000000070
:104050000000000000000000000000000000000060
:104060000000000000000000000000000000000050
:104070000000000000000000000000000000000040
:104080000000000000000000000000000000000030
:104090000000000000000000000000000000000020
:1040A0000000000000000000000000000000000010
:1040B00000000000000000100010001000000000D0
:1040C00000000000000000000000000001000000EF
:040000050800018965
:00000001FF
