:020000040800F2
:1000000098460020E9020008392800086726000801
:1000100035280008CB0500087D2F000800000000EF
:10002000000000000000000000000000290200089D
:10003000810600080000000085020008D1280008A1
:100040000303000803030008030300080303000878
:100050000303000803030008030300080303000868
:100060000303000803030008030300080303000858
:100070000303000803030008030300080303000848
:100080000303000803030008030300080303000838
:10009000D1050008E1050008030300080303000878
:1000A00003030008CD290008030300080303000828
:1000B0000303000803030008030300080303000808
:1000C00003030008030300080303000803030008F8
:1000D000030300086D2F0008030300080303000852
:1000E00003030008030300080303000803030008D8
:1000F00003030008030300080303000803030008C8
:1001000003030008030300080303000803030008B7
:1001100003030008030300080303000803030008A7
:100120000303000803030008030300080303000897
:100130000303000803030008030300080303000887
:100140000303000803030008030300080303000877
:100150000303000803030008030300080303000867
:100160000303000803030008030300080303000857
:100170000303000803030008030300080000000055
:10018000030300080303000800F002F800F03CF845
:100190000AA090E8000C82448344AAF10107DA45E2
:1001A00001D100F031F8AFF2090EBAE80F0013F0F8
:1001B000010F18BFFB1A43F001031847104B000052
:1001C000304B0000103A24BF78C878C1FAD85207E3
:1001D00024BF30C830C144BF04680C6070470000C1
:1001E0000023002400250026103A28BF78C1FBD840
:1001F000520728BF30C148BF0B6070471FB504F0DD
:1002000079FB1FBD10B510BD00F0A6F91146FFF730
:10021000F5FF02F027FF00F0C4F903B4FFF7F2FF87
:1002200003BC00F0CBF900002C4B19680868B0E85B
:10023000F04F80F30988BFF36F8F4FF0000080F319
:10024000118870470000000008480068006880F3CB
:1002500008884FF0000080F3148862B661B6BFF3DF
:100260004F8FBFF36F8F00DF00BF00BF08ED00E0CE
:10027000DFF80C00016841F470010160704700BFB5
:1002800088ED00E0EFF30980BFF36F8F134B1A681E
:100290001EF0100F08BF20ED108A20E9F04F10600B
:1002A00009B44FF0500080F31188BFF34F8FBFF3B4
:1002B0006F8F03F037FC4FF0000080F3118809BC0A
:1002C00019680868B0E8F04F1EF0100F08BFB0ECD6
:1002D000108A80F30988BFF36F8F704720000020D9
:1002E000EFF3058070470000094880470948004740
:1002F000FEE7FEE7FEE7FEE7FEE7FEE7FEE7FEE7D6
:10030000FEE7FEE704480549054A064B7047000032
:10031000B92900088901000898400020984600206B
:10032000984200209842002053EA020C00F06980B5
:100330002DE9F04B4FF00006002B1FBFB3FA83F5F9
:1003400003FA05F424FA05F65E4012BF1643B2FA2A
:1003500082F502FA05F4C5F120051EBF22FA05FC5C
:1003600044EA0C04203556EA044C4FEA144418BF02
:10037000641C4FF000084FF00009904271EB030C31
:1003800039D3002919BFB1FA81F701FA07F6B0FA9B
:1003900080F700FA07F6C7F120071EBF20FA07FC16
:1003A00046EA0C062037B6FBF4FCA7EB0507103F26
:1003B00007F01F0BCBF120060CFA0BFB2CFA06F60C
:1003C00044BFB3460026202FA4BF5E464FF0000B6B
:1003D0005BEA060C08BF4FF0010B19EB0B09ABFBF6
:1003E000027C48EB0608C01B06FB02CC0BFB03CCCF
:1003F00071EB0C01C1E70B46024641464846BDE899
:10040000F08B13B54FF000004FF00001AFF3008008
:10041000BDE81C407047032A40F2308010F0030C06
:1004200000F0158011F8013BBCF1020F624498BF47
:1004300011F801CB00F8013B38BF11F8013BA2F1E4
:10044000040298BF00F801CB38BF00F8013B11F05F
:10045000030300F02580083AC0F0088051F8043BFF
:10046000083A51F804CBA0E80810F5E7121D5CBF6C
:1004700051F8043B40F8043BAFF30080D20724BF9F
:1004800011F8013B11F801CB48BF11F8012B24BF33
:1004900000F8013B00F801CB48BF00F8012B704782
:1004A00010B5203AC0F00B80B1E81850203AA0E80F
:1004B0001850B1E81850A0E81850BFF4F5AF5FEA43
:1004C000027C24BFB1E81850A0E8185044BF18C9F6
:1004D00018C0BDE810405FEA827C24BF51F8043B9D
:1004E00040F8043B08BF7047D20728BF31F8023BF1
:1004F00048BF11F8012B28BF20F8023B48BF00F885
:10050000012B70474FF0000200B513469446964603
:10051000203922BFA0E80C50A0E80C50B1F1200116
:10052000BFF4F7AF090728BFA0E80C5048BF0CC0C4
:100530005DF804EB890028BF40F8042B08BF704722
:1005400048BF20F8022B11F0804F18BF00F8012B94
:100550007047704770477047754600F02BF8AE46FD
:1005600005006946534620F00700854618B020B5BF
:10057000FFF7C8FEBDE820404FF000064FF000072F
:100580004FF000084FF0000B21F00701AC46ACE83B
:10059000C009ACE8C009ACE8C009ACE8C0098D46A8
:1005A000704710B50446AFF300802046BDE8104008
:1005B000FFF733BE0048704734400020014918203F
:1005C000ABBEFEE726000200704700BFFEE700005A
:1005D00010B5024800F0BEF910BD00004002002036
:1005E00010B5024800F0B6F910BD0000400200202E
:1005F00000B58BB0012009900020079001200890E1
:10060000002001900290039004900690059001A9AB
:10061000054800F04FF8044800F0E5FD02210248CB
:1006200000F032F80BB000BD4002002070B5054666
:100630000C46A520104908700846A0F801400F4854
:100640000078C8700D480078401C0C4908700521DE
:10065000094802F0C9FC40F202300749A1F8050040
:10066000224629460448C01DFFF7D5FE272102482F
:1006700002F0A2FC70BD00000C40002090000020A1
:10068000704772B600BFFEE710B5024692F8203000
:10069000012B01D0022B06D1106840690843146871
:1006A0006061002010BD506A40F48020506201203B
:1006B000F8E70000F0B504460A46216894F8205097
:1006C000012D01D0022D7ED1424901F5007108684B
:1006D00040F001000860086820F47C500860086859
:1006E000566A40EA06200860107D00F01F060120CF
:1006F00000FA06F3C8699843C861A1F50071D06992
:10070000C8B9D1F80C029843C1F80C02908880B2A5
:10071000968940EA064601F51070576940F837603F
:10072000108880B2168940EA064601F510705769B4
:1007300000EBC7004660D069012819D1D1F80C023E
:100740001843C1F80C02908880B2168840EA064629
:1007500001F51070576940F83760908980B21689AA
:1007600040EA064601F51070576900EBC700466085
:10077000906928B9D1F804029843C1F8040204E052
:10078000D1F804021843C1F80402106928B9D1F85D
:1007900014029843C1F8140204E0D1F8140218437B
:1007A000C1F81402106A012804D1D1F81C021843C0
:1007B000C1F81C02D1F8000220F00100C1F80002CB
:1007C0000020F0BDFFE7606A40F4802060620120F5
:1007D000F7E7000000640040704770B5044694F8E5
:1007E0002050012D01D0022D7DD151B92068C06863
:1007F00000F0030080B9606A40F4001060620120DC
:1008000070BD2068006900F0030028B9606A40F4F8
:10081000001060620120F3E7206800F5D87000EB5B
:100820000110006800F004009060906840B92068F2
:1008300000F5D87000EB01100068400D106007E073
:10084000206800F5D87000EB01100068C008506007
:10085000206800F5D87000EB0110006800F002007D
:10086000D060206800F5D87000EB0110406800F0FF
:100870000F001061206800F5D87000EB011040688F
:1008800000F47F40000A9061206800F5D87000EB0A
:1008900001104068000C5061206800F5D87000EB32
:1008A000011080681870206800F5D87000EB011006
:1008B000806800F47F40000A5870206800F5D87006
:1008C00000EB0110806800F47F00000C9870206835
:1008D00000F5D87000EB01108068000ED870206819
:1008E00000F5D87000E02FE000EB0110C06818712F
:1008F000206800F5D87000EB0110C06800F47F405C
:10090000000A5871206800F5D87000EB0110C0682B
:1009100000F47F00000C9871206800F5D87000EB9F
:100920000110C068000ED87131B92068C06840F06D
:1009300020002668F06005E02068006940F0200093
:100940002668306100205BE7606A40F480206062C6
:10095000012055E72DE9F05F04460025206846692F
:100960002068D0F80490206887682068D0F80CA030
:100970002068D0F810B02068D0F8188006F0010088
:10098000002855D007F00100C0B10120216888601F
:1009900007F0020018B1204600F055FC0EE007F009
:1009A000040010B145F4006508E007F0080010B13C
:1009B00045F4805502E0204600F044FC07F48070C6
:1009C000C8B14FF480702168886007F4007018B1D6
:1009D000204600F03AFC0EE007F4806010B145F4C8
:1009E000005508E007F4006010B145F4804502E0CE
:1009F000204600F029FC07F48030C8B14FF4803065
:100A00002168886007F4003018B1204600F01FFC10
:100A10000EE007F4802010B145F4004508E007F42B
:100A2000002010B145F4803502E0204600F00EFCB5
:100A300006F0080038B10AF0100020B145F4007546
:100A400010202168C86006F0040040B10AF00800D8
:100A500028B108202168C860204600F0B1F906F0EE
:100A6000020038B12068C06800F0030010B12046D1
:100A700000F0A8F906F0400038B10BF0100020B1EA
:100A800045F4806510202168086106F0200040B11F
:100A90000BF0080028B1082021680861204600F00A
:100AA0009FFB06F0100038B12068006900F00300D9
:100AB00010B1204600F095FB06F4003040B109F07B
:100AC000100028B1102021684860204600F08AFB01
:100AD00006F4803040B109F0080028B108202168F0
:100AE0004860204600F0B4FB06F4004088B309F0EB
:100AF000040078B306F4807020B108F0010008B15A
:100B000045F0010506F4007020B108F0020008B1BC
:100B100045F0020506F4806020B108F0040008B139
:100B200045F0040506F40060A0B108F0700088B13B
:100B300008F07000402817D006DC10280BD02028C1
:100B40000CD0302819D10CE0502810D0602814D1D6
:100B500010E01DE019E045F008050FE045F0100534
:100B60000CE045F0200509E045F0400506E045F0C1
:100B7000800503E045F4807500E000BF00BF2068F9
:100B8000806920F070002168886104202168486035
:100B90002DB1606A284360622046FFF71DFEBDE864
:100BA000F09F70B504460CB9012070BD94F8200088
:100BB00010B9204600F0B0F82068006840F001004D
:100BC0002168086000F0AAFC05460DE000F0A6FCD4
:100BD000401B0A2808D9606A40F400306062052092
:100BE00084F820000120E0E72068406800F0010060
:100BF0000028EBD02068006820F00200216808601F
:100C000000F08CFC05460DE000F088FC401B0A2833
:100C100008D9606A40F400306062052084F8200042
:100C20000120C2E72068406800F002000028EBD1F4
:100C3000207E012806D12068006840F080002168ED
:100C4000086005E02068006820F0800021680860E6
:100C5000607E012806D12068006840F040002168CD
:100C6000086005E02068006820F040002168086006
:100C7000A07E012806D12068006840F0200021688D
:100C8000086005E02068006820F020002168086006
:100C9000E07E012806D12068006820F0100021685D
:100CA000086005E02068006840F0100021680860D6
:100CB000207F012806D12068006840F008002168E4
:100CC000086005E02068006820F0080021680860DE
:100CD000607F012806D12068006840F00400216888
:100CE000086005E02068006820F0040021680860C2
:100CF000D4E9020108432169084361690843616836
:100D0000491E08432168C86100206062012084F800
:100D10002000002049E7000010B586B004461421E9
:100D200001A8FFF7EFFB2349206888423FD100BFAD
:100D3000002000902048006840F000701E490860C4
:100D40000846006800F00070009000BF00BF00BFC0
:100D50000020009018481038006840F0080016493C
:100D6000103908600846006800F00800009000BFD5
:100D700000BF032001900220029000200390032076
:100D800004900920059001A90C4800F0CDFA00223A
:100D90000521142000F07CFC142000F069FC0022E6
:100DA0000521152000F074FC152000F061FC06B050
:100DB00010BD00000064004040380240000C0240BA
:100DC0007047000010B52DED088B88B00446DE4951
:100DD0002068884279D1DD4B01AA00212046FFF727
:100DE000FCFC0198A0F2012005286DD2DFE800F09C
:100DF000036EB1FCFB00D5484078D449097840EA3D
:100E0000012000B2D2490880D048C078CF49897803
:100E100040EA012000B2CE494880CC484079CB4915
:100E2000097940EA012000B2C9498880C748807921
:100E3000C8800846B0F90000C649B1F90010401A50
:100E400010F5805F06DAC248008800F5005000B255
:100E5000BF490880BE48B0F90000BE49B1F9001092
:100E6000401AB0F5805F06DDB9480088A0F5005053
:100E700000B2B7490880B6480088B6490880B4492E
:100E8000B1F90010A1F6485003F034FB41EC1B0B04
:100E90009FEDB10B53EC102B03F044FB41EC1A0B0C
:100EA0009FEDAF0B53EC102B03F0CCF941EC190B79
:100EB0009FEDAD0B53EC102B03F01CF941EC180B1C
:100EC00003F0E6F8AA49086039E139E19F48407823
:100ED0009E49097840EA012000B2A64908809B4853
:100EE000C0789A49897840EA012000B2A149488037
:100EF000964840799549097940EA012000B29D4918
:100F0000888092488079C880B1F90010A1F6D86035
:100F100003F0F0FA41EC1B0B9FED970B53EC102BF9
:100F200003F000FB41EC1A0B9FED950B53EC102BDB
:100F300003F088F941EC190B9FED930B53EC102B48
:100F400003F0D8F841EC180B03F0A2F890490860C0
:100F5000F5E07E4840787D49097840EA012000B2FA
:100F60008C4908807948C0787849897840EA01201E
:100F700000B288494880754840797449097940EA47
:100F8000012000B28349888070488079C880084673
:100F9000B0F900008049B1F90010401A10F5805FE7
:100FA00006DA7C48008800F5005000B279490880D4
:100FB0007848B0F900007849B1F90010401AB0F54E
:100FC000805F06DD73480088A0F5005000B27149CB
:100FD000088070480088704908806E49B1F9001097
:100FE000A1F5FA7001E08BE020E003F083FA41EC18
:100FF0001B0B9FED6A0B53EC102B03F093FA41ECA3
:101000001A0B9FED680B53EC102B03F01BF941EC0E
:10101000190B9FED660B53EC102B03F06BF841ECB2
:10102000180B03F035F86349086088E047484078BA
:101030004649097840EA012000B25F4908804348E8
:10104000C0784249897840EA012000B25A49488074
:101050003E4840793D49097940EA012000B25649AD
:1010600088803A488079C8800846B0F90000534922
:10107000B1F90010401A10F5805F06DA4E4800887A
:1010800000F5005000B24C4908804B48B0F9000010
:101090004A49B1F90010401AB0F5805F06DD4648B4
:1010A0000088A0F5005000B24349088042480088FB
:1010B000424908804049B1F90010A1F6E44003F02C
:1010C00019FA41EC1B0B9FED3E0B53EC102B03F078
:1010D00029FA41EC1A0B9FED3C0B53EC102B03F05B
:1010E000B1F841EC190B9FED3A0B53EC102B03F0C8
:1010F00001F841EC180B02F0CBFF374908601EE005
:10110000124840781149097840EA012000B2334979
:1011100008800E48C0780D49897840EA012000B265
:101120002E494880094840790849097940EA012058
:1011300000B22A49888005488079C88000BF00BF76
:1011400008B0BDEC088B10BD00640040CE0000204C
:101150009C000020D8000020CA54C1A8A4CE06C01C
:101160000000000000F8B140B003E78C28EDFB3F21
:10117000E4000020A4000020C0EC9E3C2CD4FEBF64
:1011800000000000008CA440000000000000FB3FB5
:10119000DC000020AC000020D6000020EA26310848
:1011A000AC1CF8BF000000000088A3409318045650
:1011B0000E2DECBFE0000020B4000020DA0000207B
:1011C0006E3480B7408209C0000000000000A9C052
:1011D00045D8F0F44A59F63FE8000020BC00002052
:1011E00070477047704770B5044694F82000012896
:1011F00022D1022084F820002068006820F001003D
:101200002168086000F08AF905460DE000F086F9D3
:10121000401B0A2808D9606A40F40030606205204B
:1012200084F82000012070BD2068406800F00100B3
:101230000028EBD16062F6E7606A40F4002060624B
:101240000120F0E77047704770477047704770475C
:10125000704770B50446A56D00F060F9064694F835
:101260003500022808D08020606500BF002084F887
:10127000340000BF012070BD2068006820F0160017
:10128000216808602068406920F08000216848617A
:10129000206C08B9A06C28B12068006820F0080014
:1012A000216808602068006820F00100216808605B
:1012B00010E000F033F9801B05280BD92020606571
:1012C000032084F8350000BF002084F8340000BFFC
:1012D0000320D0E72068006800F001000028E8D172
:1012E00094F85C103F208840A860012084F8350005
:1012F00000BF002084F8340000BF00BFBBE70146F8
:1013000091F83500022803D08020486501207047FD
:10131000052081F835000868006820F001000A689F
:1013200010600020F3E70000F8B502460B460025E8
:10133000002400200021D6E0012606FA01F51E68EF
:1013400006EA0504AC4274D11E7906F00306012EAC
:1013500004D01E7906F00306022E13D190684F00C8
:101360000326BE40B0434F00DE68BE40304390606D
:10137000506801268E40B0431E79C6F300168E4099
:10138000304350601E7906F00306032E09D0D06862
:101390004F000326BE40B0434F009E68BE4030431E
:1013A000D0601E7906F00306022E13D1CF0802F199
:1013B000200656F827004E07F70E0F26BE40B04312
:1013C0004F07FF0E1E69BE403043CF0802F12006D2
:1013D00046F8270010684F000326BE40B0431E7930
:1013E00006F003064F00BE40304310605E6806F40E
:1013F0004036002E76D000BF002600963C4E366860
:1014000046F480463A4F3E603E46366806F48046D3
:10141000009600BF00BF374E8F0856F827008E0792
:10142000370F0F26BE40B043334EB24202D10026E2
:1014300024E057E0314EB24201D101261EE0304E89
:10144000B24201D1022619E02E4EB24201D103264A
:1014500014E02D4EB24201D104260FE02B4EB242D1
:1014600001D105260AE02A4EB24201D1062605E046
:10147000284EB24201D1072600E008268F073F0F11
:10148000BE4030431B4E8F0846F82700224E30687E
:10149000A0435E6806F4801606B120431E4E3060FD
:1014A000361D3068A0435E6806F4001606B120437E
:1014B000194E361D3060184E361F3068A0435E68E6
:1014C00006F4003606B12043134E361F3060361F37
:1014D0003068A0435E6806F4803606B120430E4EA5
:1014E000083E3060491C1029FFF426AFF8BD00000B
:1014F0004438024008380140000002400004024025
:1015000000080240000C024000100240001402409B
:1015100000180240001C0240083C014001480068DD
:101520007047000010000020034800680349097854
:10153000084401490860704710000020180000208E
:1015400010B50D48006840F400700B49086008466B
:10155000006840F4806008600846006840F48070CD
:101560000860032000F0D2F8052000F007F800F032
:1015700055F8002010BD0000003C0240F0B587B0D7
:1015800004460026002700BF002000901E48006887
:1015900040F001001C4908600846006800F00100A6
:1015A000009000BF00BF01A902A800F085F900F07B
:1015B000BBF946001548B6FBF0F0471E1448154924
:1015C000086040F2E7311348C160476000210161C3
:1015D0008160816100F060FC054695B90D4800F01E
:1015E0008FFC05466DB9192000F042F8102C07D287
:1015F00000222146192000F04BF80748046000E063
:101600000125284607B0F0BD4438024040420F0093
:1016100000000140AC0200201400002008B500BF0B
:10162000002000901148006840F480400F49086095
:101630000846006800F48040009000BF00BF00BF73
:1016400000200090081F006840F08050091F0860CB
:101650000846006800F08050009000BF00BF0022E4
:101660000F21901E00F014F808BD0000443802401D
:1016700001460846002809DB00F01F0301229A40BA
:1016800043099B0003F1E023C3F8002100BF70472A
:101690002DE9F05F80460D461646002701F070FCEC
:1016A000074639462A46334601F00700C0F1070ACB
:1016B000BAF1040F02D94FF0040A01E0C0F1070AA1
:1016C000D14600F1040ABAF1070F02D24FF0000A26
:1016D00001E0A0F1030AD4464FF0010A0AFA09FA20
:1016E000AAF1010A0AEA020A0AFA0CFA4FF0010BFF
:1016F0000BFA0CFBABF1010B0BEA030B4AEA0B04F0
:101700002146404601F044FCBDE8F09F00BF00F0D8
:101710000702064B19684FF6FF031940044B0B43B1
:1017200043EA0221014B196000BF70470CED00E055
:101730000000FA0570B504460D460CB9012070BDD5
:101740005848006800F00700A84209D255490D70BA
:101750000846006800F00700A84201D00120EEE72B
:10176000207800F0020002281DD1207800F004004B
:10177000042805D14C48006840F4E0504A4908600C
:10178000207800F00800082805D14748006840F498
:101790006040454908604448006820F0F000A168B6
:1017A000084341490860207800F00100A8B3606850
:1017B000012807D13C4808380068C0F34040B8B958
:1017C0000120BCE76068022802D06068032807D1C6
:1017D000354808380068C0F3406048B90120AEE7DA
:1017E000314808380068C0F3400008B90120A6E776
:1017F0002D48006820F00300616808432A4908600A
:10180000FFF78CFE064609E0FFF788FE801B41F2D9
:101810008831884202D9032091E707E02248006816
:1018200000F00C006168B0EB810FEDD11D4800683D
:1018300000F00700A84209D91A490D70084600684F
:1018400000F00700A84201D0012078E7207800F0DE
:101850000400042807D11448006820F4E050E1682F
:10186000084311490860207800F00800082808D1D2
:101870000D48006820F46040216940EAC1000A492F
:10188000086000F061F808490968C1F30311074ACC
:10189000515CC8400649086006480068FFF76EFEC4
:1018A00000204CE7003C024008380240784900081C
:1018B0001C000020140000200F2202600D4A126854
:1018C00002F0030242600B4A126802F0F0028260EA
:1018D000084A126802F4E052C260064A126802F432
:1018E0006042D2080261044A126802F007020A60EC
:1018F0007047000008380240003C02400148006880
:10190000704700001C00002000B5FFF7F7FF0449F6
:101910000968C1F38221034A515CC84000BD000040
:10192000083802408849000800B5FFF7E7FF04497E
:101930000968C1F34231034A515CC84000BD000050
:1019400008380240884900082DE9F04700240025A6
:101950000026A1462548006800F00C0020B10428AC
:1019600005D008283AD105E0DFF8849039E0DFF8A7
:10197000849036E01D48001F006800F03F041B48BB
:10198000001F006800F4800078B11A481749091F49
:101990000968C1F38811A0FB0170014622460023AB
:1019A0003846FEF7C1FC05460EE011480F49091FF5
:1019B0000968C1F38811A0FB01700146224600238B
:1019C0003846FEF7B1FC05460848001F0068C0F322
:1019D0000140401C4600B5FBF6F902E0DFF810902C
:1019E00000BF00BF4846BDE8F0870000083802404D
:1019F0000024F400001BB700F8B504460CB9012020
:101A0000F8BD207800F00100002874D0F948006883
:101A100000F00C0004280DD0F648006800F00C001F
:101A2000082813D1F348001F006800F48000B0F5C7
:101A3000800F0BD1EF4808380068C0F34040002801
:101A400059D06068002856D10120D9E700BF6068EE
:101A5000B0F5803F08D1E7480838006840F480308E
:101A6000E449083908601EE06068B0F5A02F0DD188
:101A7000E0480838006840F48020DE4908390860F2
:101A80000846006840F4803008600CE0D948083807
:101A9000006820F48030D74908390860084600689B
:101AA00020F48020086000BF606890B1FFF736FD29
:101AB000054606E0FFF732FD401B642801D90320EC
:101AC0009EE7CC4808380068C0F340400028F1D0B9
:101AD00011E0FFF723FD054606E0FFF71FFD401B61
:101AE000642801D903208BE7C24808380068C0F396
:101AF00040400028F1D1207800F0020002285FD198
:101B0000BC48006800F00C0058B1BA48006800F00A
:101B10000C0008281CD1B748001F006800F48000A2
:101B2000B0B9B44808380068C0F3400020B1E0689C
:101B3000012801D0012063E7AE480838006820F092
:101B4000F800216940EAC100AA490839086037E075
:101B5000E06800B30120A8490860FFF7DFFC0546F4
:101B600006E0FFF7DBFC401B022801D9032047E712
:101B7000A04808380068C0F340000028F1D09D4814
:101B80000838006820F0F800216940EAC10099494E
:101B90000839086014E0002097490860FFF7BEFC90
:101BA000054606E0FFF7BAFC401B022801D90320D6
:101BB00026E7904808380068C0F340000028F1D1BB
:101BC000207800F0080008282CD16069A8B1012015
:101BD0008A490860FFF7A2FC054606E0FFF79EFC75
:101BE000401B022801D903200AE782486C300068B4
:101BF000C0F340000028F1D014E000207F490860C5
:101C0000FFF78CFC054606E0FFF788FC401B022826
:101C100001D90320F4E677486C300068C0F3400037
:101C20000028F1D1207800F00400042870D10027AA
:101C300070483830006800F0805090B900BF002034
:101C400000906C483830006840F080506949383165
:101C500008600846006800F08050009000BF00BF98
:101C600001276748006800F48070B0B964480068D4
:101C700040F4807062490860FFF750FC054606E0BA
:101C8000FFF74CFC401B022801D90320B8E65C4852
:101C9000006800F480700028F2D000BFA06801281E
:101CA00008D154486830006840F00100514968315B
:101CB00008601DE0A06805280DD14E486830006816
:101CC00040F004004B49683108600846006840F065
:101CD000010008600CE047486830006820F001000F
:101CE0004449683108600846006820F00400086034
:101CF00000BFA068A8B1FFF711FC054609E0FFF797
:101D00000DFC401B41F28831884202D9032077E65E
:101D100026E0384868300068C0F340000028EED064
:101D200013E0FFF7FBFB054608E0FFF7F7FB401B5E
:101D300041F28831884201D9032061E62D4868309C
:101D40000068C0F340000028EFD1012F07D12948D7
:101D50003830006820F0805026493831086000BFD4
:101D6000A069002845D02348006800F00C0008282E
:101D70005DD0A069022845D100201F490866FFF701
:101D8000CDFB054606E0FFF7C9FB401B022801D941
:101D9000032035E6174808380068C0F34060002883
:101DA000F1D1D4E907010843616A40EA81110122B7
:101DB000A06AC2EB500041EA00412C20005D41EADC
:101DC00000600C49091F086001200B490866FFF7F5
:101DD000A5FB054606E0FFF7A1FB401B022801D941
:101DE00003200DE6034808380068C0F3406000286F
:101DF000F1D049E00838024000004742800E4742D7
:101E000000700040002021490866FFF787FB054667
:101E100006E0FFF783FB401B022801D90320EFE512
:101E20001B480068C0F340600028F2D12CE0A06994
:101E3000012800D1E4E51648001D0668A0690128C4
:101E400020D006F48001E06981421BD106F03F01F9
:101E5000206A814216D147F6C0703040616AB0EB0B
:101E6000811F0FD106F440310122A06AC2EB50005D
:101E7000B1EB004F06D106F070612C20005DB1EB94
:101E8000006F01D00120BBE50020B9E5000047420A
:101E9000003802407047704710B504460CB9012065
:101EA00010BD94F83D0028B9002084F83C0020467D
:101EB00000F025F8022084F83D00211D206800F084
:101EC0008DFD012084F8460000BF84F83E0001210A
:101ED0003F200155402001554120015500BF00BF62
:101EE000012084F84200432001554420015545203B
:101EF000015500BF012084F83D000020D0E7704765
:101F0000014691F83D00012801D0012070470220D0
:101F100081F83D000868C06840F001000B68D86097
:101F20001A4B086898421BD00868B0F1804F17D050
:101F3000174B0868984213D0164B086898420FD088
:101F4000154B086898420BD0144B0868984207D08C
:101F5000134B0868984203D0124B086898420CD182
:101F60000868806800F00702062A0CD0086800683C
:101F700040F001000B68186005E00868006840F058
:101F800001000B6818600020C0E70000000001405D
:101F90000004004000080040000C00400004014024
:101FA0000040014000180040704710B5044620680A
:101FB0000069C0F34000D8B12068C068C0F3400099
:101FC000B0B16FF00200216808610120207720681D
:101FD000806900F0030018B12046FFF7E5FF05E037
:101FE000204600F0ADF8204600F0ABF80020207746
:101FF00020680069C0F38000D8B12068C068C0F3D1
:102000008000B0B16FF004002168086102202077E1
:102010002068806900F4407018B12046FFF7C4FFC3
:1020200005E0204600F08CF8204600F08AF80020F9
:10203000207720680069C0F3C000D8B12068C0686C
:10204000C0F3C000B0B16FF008002168086104203F
:1020500020772068C06900F0030018B12046FFF720
:10206000A3FF05E0204600F06BF8204600F069F879
:102070000020207720680069C0F30010D8B12068E4
:10208000C068C0F30010B0B16FF0100021680861A3
:10209000082020772068C06900F4407018B12046FD
:1020A000FFF782FF05E0204600F04AF8204600F0E6
:1020B00048F8002020772068006900F0010058B13E
:1020C0002068C06800F0010030B16FF001002168A5
:1020D0000861204600F036F820680069C0F3C0109F
:1020E00058B12068C068C0F3C01030B16FF08000F4
:1020F000216808612046FFF7CDFE20680069C0F323
:10210000801058B12068C068C0F3801030B16FF003
:10211000400021680861204600F020F8206800692E
:10212000C0F3401058B12068C068C0F3401030B10F
:102130006FF02000216808612046FFF7ACFE10BD5B
:102140007047704710B5044603492068884201D1A2
:10215000FFF7EAF910BD000000000140704770472A
:10216000704700002DE9F84F044620680568206894
:10217000C668206847694FF00009CA4605F00F0994
:10218000B9F1000F0AD105F0200038B106F02000A7
:1021900020B1204600F0DEFCBDE8F88FB9F1000F59
:1021A0007CD007F0010018B906F49070002875D0B3
:1021B00005F0010030B106F4807018B1206C40F0D9
:1021C0000100206405F0040030B107F0010018B1EF
:1021D000206C40F00200206405F0020030B107F0EE
:1021E000010018B1206C40F00400206405F00800E4
:1021F00048B106F0200010B907F0010018B1206CBA
:1022000040F008002064206C002846D005F0200033
:1022100028B106F0200010B1204600F09BFC206899
:102220004069C0F3801A206C00F0080010B9BAF1C0
:10223000000F2DD0204600F047FC2068406900F0D8
:102240004000402820D100BF00BF2168143151E870
:10225000001F21F040002168143141E80002002AEB
:10226000F3D100BFA06B50B17548A16B0865A06B9E
:10227000FFF745F888B1A06B016D88470DE0204657
:10228000FFF76EFF09E009E02046FFF769FF04E071
:102290002046FFF765FF002020647DE7206B0128C2
:1022A00076D105F01000002872D006F0100000284A
:1022B000FAD000BF002000902068006800902068DD
:1022C0004068009000BF00BF2068406900F04000F7
:1022D00040285ED1A06B006840681FFA80F8B8F112
:1022E000000F54D0A08D404551DDA4F82E80A06B86
:1022F000C069B0F5807F43D000BF00BF21680C31BA
:1023000051E8001F21F4807021680C3141E800027F
:10231000002AF3D100BF00BF00BF2168143151E88B
:10232000001F21F001002168143141E80002002A59
:10233000F3D100BF00BF00BF2168143151E8001F76
:1023400021F040002168143141E80002002AF3D155
:1023500000BF202084F83E000020206300BF00BFA3
:1023600021680C3151E8001F21F0100021680C3168
:1023700041E80002002AF3D100BFA06BFEF769FF1D
:10238000A08DE28D801A81B22046FFF7E8FE03E7B8
:1023900040E0A08DE18D401A1FFA80F8E08DC0B3B7
:1023A000B8F1000F35D000BF00BF21680C3151E8F3
:1023B000001F21F4907021680C3141E80002002ACE
:1023C000F3D100BF00BF00BF2168143151E8001FE6
:1023D00021F001002168143141E80002002AF3D104
:1023E00000BF202084F83E000020206300BF00BF13
:1023F00021680C3151E8001F21F0100021680C31D8
:1024000041E80002002AF3D100BF41462046FFF711
:10241000A6FEC1E605F0800030B106F0800018B1DC
:10242000204600F029FDB7E605F0400030B106F087
:10243000400018B1204600F07DFBADE600BFABE6E2
:10244000B52A000810B504460CB9012010BDA069DA
:1024500000B100E000BF94F83D0028B9002084F8E6
:102460003C00204600F028F8242084F83D00206835
:10247000C06820F400502168C860204600F0E6FBE8
:102480002068006920F49040216808612068406954
:1024900020F02A00216848612068C06840F400509C
:1024A0002168C86000202064202084F83D0084F862
:1024B0003E000020CAE7000010B586B00446142193
:1024C00001A8FEF71FF82E492068884255D100BFA9
:1024D000002000902B48006840F010002949086057
:1024E0000846006800F01000009000BF00BF00BF69
:1024F0000020009023481438006840F00200214971
:10250000143908600846006800F00200009000BF1F
:1025100000BF00BF002000900846006840F00100A6
:1025200008600846006800F00100009000BF00BF8E
:10253000802001900220029000200390032004904C
:102540000720059001A91048FEF7EEFE4FF4007039
:1025500001900220029000200390032004900720A5
:10256000059001A90948FEF7DFFE0022052125207C
:10257000FFF78EF82520FFF77BF806B010BD0000AE
:1025800000100140443802400004024000000240B4
:1025900070472DE9F84F04460E46174699464FF00E
:1025A000000A94F83D0020285AD106B117B901203D
:1025B000BDE8F88F00BF94F83C00012801D102204B
:1025C000F6E7012084F83C0000BF002020642120B1
:1025D00084F83D00FEF7A2FF8246A784E784A06846
:1025E000B0F5805F04D1206910B90025B04602E043
:1025F00035464FF0000800BF002084F83C0000BFC3
:102600001BE05346002280212046CDF8009000F0C8
:1026100063FC08B10320CBE745B9B8F80000C0F36C
:1026200008002168486008F1020803E02878216862
:1026300048606D1CE08C401EE084E08C0028E0D1F6
:102640005346002240212046CDF8009000F044FC83
:1026500008B10320ACE7202084F83D000020A7E764
:102660000220A5E7704700BFFEE7000010B50F4845
:102670000F4908600620486000210D488160C16054
:102680004FF4003101610901416100210176417679
:1026900081760121C1760021017701214177FEF782
:1026A00080FA08B1FDF7EDFF10BD000000640040A6
:1026B0004002002000B59DB01C22184916A8FDF765
:1026C000EFFE002116A800F005FD154908601C2248
:1026D00012491C310FA8FDF7E3FE00210FA800F0FE
:1026E000F9FC104908601C220C49383108A8FDF794
:1026F000D7FE002108A800F0EDFC0B4908601C2261
:102700000649543101A8FDF7CBFE002101A800F0D5
:10271000E1FC064908601DB000BD00000849000842
:102720000000002004000020080000200C00002011
:1027300000B587B0142102A8FDF7E4FE00BF002019
:1027400001902C48006840F001002A4908600846C2
:10275000006800F00100019000BF00BF00BF002032
:1027600001900846006840F00200086008460068D2
:1027700000F00200019000BF00BF00BF00200190E8
:102780000846006840F0080008600846006800F04D
:102790000800019000BF00BF00BF00200190084664
:1027A000006840F0040008600846006800F004007B
:1027B000019000BF00BF00BF0020019008460068E4
:1027C00040F0800008600846006800F0800001903A
:1027D00000BF00BF802002900220039000200490E0
:1027E000032005900520069002A90348FEF79CFDF2
:1027F00007B000BD303802400000024010B50B4861
:102800000B4908604FF4E1304860002108488160BE
:10281000C16001610C21416100218161C161FFF74B
:1028200011FE08B1FDF72DFF10BD000000100140A2
:102830006802002000BFFEE700BFFEE700BF0120E6
:1028400000F029FCFBE700008AB001F0F5FA0990DE
:1028500000BF1348134909680160134909684160C2
:1028600012490968816012490968C160202101A8E4
:10287000FDF748FE0A4B0FCBCDE90323CDE901015B
:102880001E2101A8FDF7D2FE3223272209490A485A
:10289000FFF77FFE322109A800F009FCD9E700000C
:1028A000FC3F0020DC000020E0000020E4000020CD
:1028B000E80000200C4000206802002000BF01203A
:1028C00000F0E9FBFBE700BF012000F0E4FBFBE7C1
:1028D00010B500BF502080F31188BFF34F8FBFF3B6
:1028E0006F8F00BF01F0AEFA18B14FF0805004496D
:1028F000086000BF002080F3118800BF10BD0000F9
:1029000004ED00E000B593B0302107A8FDF7FAFD13
:10291000142102A8FDF7F6FD00BF00200190244815
:10292000006840F08050224908600846006800F0C6
:102930008050019000BF00BF00BF002001901D48E3
:10294000006840F480401B4908600846006800F4B5
:102950008040019000BF00BF012007900004089054
:1029600002200D9041050E9106210F91A821109192
:10297000022111910421129107A8FFF73DF808B137
:10298000FDF77FFE0F2002900220039000200490AC
:102990004FF4A05005904FF480500690052102A8F6
:1029A000FEF7C8FE08B1FDF76CFE13B000BD0000D5
:1029B00040380240007000400348006840F4700056
:1029C000014908607047000088ED00E010B502483A
:1029D000FFF7EBFA10BD0000AC02002010B5026852
:1029E000294B98420ED0B0F1804F0BD0274B984224
:1029F00008D0274B984205D0264B984202D0264B50
:102A0000984203D122F070024B681A431E4B984241
:102A100020D0B0F1804F1DD01C4B98421AD01C4BD7
:102A2000984217D01B4B984214D01B4B984211D0A0
:102A30001A4B98420ED01A4B98420BD0194B984221
:102A400008D0194B984205D0184B984202D0184B29
:102A5000984203D122F44072CB681A4322F08003DB
:102A60004C6943EA040202608B68C3620B688362AC
:102A7000054B984202D0084B984201D10B69036381
:102A80000123436110BD000000000140000400402C
:102A900000080040000C00400004014000400140DC
:102AA000004401400048014000180040001C004064
:102AB0000020004070B50546AC6B0020E085E08446
:102AC0002046FFF74DFB70BD00BF00BF02680C320F
:102AD00052E8002F22F4907102680C3242E8001391
:102AE000002BF3D100BF00BF00BF0268143252E8D0
:102AF000002F22F001010268143242E80013002B7B
:102B0000F3D100BF016B01290ED100BF00BF0268E5
:102B10000C3252E8002F22F0100102680C3242E819
:102B20000013002BF3D100BF202180F83E100021BC
:102B30000163704710B504462068C06820F040006B
:102B40002168C860202084F83D002046FFF78AFDF8
:102B5000002010BDF8B5044694F83E00222873D139
:102B6000A068B0F5805F0CD1206950B90025A66A35
:102B700020684068C0F308003080A06A801CA06212
:102B800015E0A56A0026A068B0F5805F03D0A068B4
:102B900028B9206918B920684068287004E02068C6
:102BA000406800F07F002870A06A401CA062E08DA1
:102BB000401E80B2E085002844D12068C06820F023
:102BC00020002168C8602068C06820F480702168F7
:102BD000C8602068406920F0010021684861202019
:102BE00084F83E00206B012826D10020206300BF1E
:102BF00000BF21680C3151E8001F21F0100021684E
:102C00000C3141E80002002AF3D100BF20680068BF
:102C100000F0100010280AD100BF002000902068AA
:102C20000068009020684068009000BF00BFA18D40
:102C30002046FFF794FA02E02046FFF7A9FC0020A7
:102C4000F8BD01E00020FBE70220F9E72DE9F84F8D
:102C500004462068006920F44050E1680843216878
:102C600008612169A068084361690843E169084374
:102C700000902068C06849F20C61884300990843BD
:102C80002168C8602068406920F44070A169084349
:102C90002168486176492068884203D075492068D8
:102CA000884203D1FEF740FE814602E0FEF72CFE8B
:102CB0008146E069B0F5004F6CD102206168A0FB4D
:102CC000015003461920A9FB007001462A463846E8
:102CD000FDF72AFB6421B0FBF1F04FEA001A022055
:102CE0006168A0FB01510B461920A9FB00712A461F
:102CF0003846FDF719FB834602206168A0FB0150AE
:102D000003461920A9FB00712A463846FDF70CFB43
:102D10006421B0FBF1F000EBC00101EB0010ABEB64
:102D20008000322101EBC0006421B0FBF1F000F023
:102D3000F8000AEB400A02206168A0FB015003463C
:102D40001920A9FB007001462A463846FDF7ECFA27
:102D5000834602206168A0FB015003461920A9FBAD
:102D600000712A463846FDF7DFFA6421B0FBF1F026
:102D700000EBC00101EB0010ABEB8000322101EB56
:102D8000C0006421B0FBF1F000F00700504421685E
:102D900088606AE004206168A0FB015003461920A6
:102DA000A9FB007001462A463846FDF7BDFA824667
:102DB00004206168A0FB015003461920A9FB0070A4
:102DC00001462A463846FDF7AFFA6421B0FBF1F020
:102DD00000EBC00101EB0010AAEB8000322101EBF7
:102DE00000106421B0FBF1F000F0F00A04206168EB
:102DF000A0FB017003461920A9FB00513A46284662
:102E0000FDF792FA6421B0FBF1F00AEB001A0420FE
:102E10006168A0FB01510B461920A9FB00712A46ED
:102E20003846FDF781FA834604206168A0FB015013
:102E300003461920A9FB007001462A463846FDF7D3
:102E400073FA6421B0FBF1F000EBC00101EB00105C
:102E5000ABEB8000322101EB00106421B0FBF1F0FC
:102E600000F00F00504421688860BDE8F88F000032
:102E70000010014000140140014691F83D00212856
:102E800028D18868B0F5805F0BD1086948B90A6A13
:102E90001088C0F308000B685860086A801C08623C
:102EA00005E00B6A581C086218780B685860C88CDB
:102EB000401E80B2C88458B90868C06820F08000FD
:102EC0000B68D8600868C06840F040000B68D860A4
:102ED000002070470220FCE72DE9F04104460D4632
:102EE00017469846069E34E0701C88B32EB1FEF754
:102EF00015FBA0EB0800B0422BD900BF00BF216832
:102F00000C3151E8001F21F4D07021680C3141E8E8
:102F10000002002AF3D100BF00BF00BF21681431B6
:102F200051E8001F21F001002168143141E800023E
:102F3000002AF3D100BF202084F83D0084F83E0031
:102F400000BF002084F83C0000BF0320BDE8F081F2
:102F5000FFE7206800682840A84201D1012000E076
:102F60000020B842C0D00020F0E7000010B50248B1
:102F7000FFF7F8F810BD00006802002000BFFEE770
:102F800002480068C0F30220704700000CED00E02A
:102F900010B5002804DB0A07130E054A135406E097
:102FA0000A07140E034A00F00F031B1FD45410BD70
:102FB00000E400E018ED00E070B505460C46002680
:102FC0000DB1022C00D870BDA11E0648028828460B
:102FD00000F01CF80646A01E2E54310A601E29542B
:102FE00000BFF0E79200002070B505460C460026B1
:102FF0000DB1022C00D870BD611EFF22284600F0E2
:103000001FF80646601E2E5400BFF4E730B5034695
:1030100013B94FF6FF7030BD09E013F8014B82EA97
:103020000400C0B2054D35F8100080EA2222081EC7
:10303000A1F10101F1D11046EDE70000924A00082C
:1030400030B5034605E013F8010B80EA020404489A
:10305000025D081EA1F10101F5D1104630BD00004E
:1030600091490008FEF76CFAFFF74CFCFFF760FB94
:10307000FFF7C4FBFFF7FAFAFDF7BAFAFFF71AFBFE
:1030800000F023F800BFFEE701460020842901D0AC
:10309000CA1C1044704770B5044625460DB1294638
:1030A00000E00121084600F045FC002070BD70B52D
:1030B00005460C4626460EB1304600E0012001468A
:1030C000284600F065FC002070BD10B500F0CAFC79
:1030D000002010BD7FB504460D46606998B1A06917
:1030E00088B1B4F90800FFF7CFFF0646D4E9051010
:1030F000CDE9006102902B462269D4E9001000F06E
:103100003DFE039013E0B4F90800FFF7BDFF06464B
:1031100003A8CDE90060238A9AB22B46D4E90010B7
:1031200000F0FAFD012802D0002004B070BD039821
:10313000FBE700002DE9F04105460E461C480768F4
:103140001C480068001D00F0F1FA50B919480068E9
:1031500090F82C10012088401749096881431648CF
:103160000160681C38B936B112480168091D13485E
:1031700000F026FB1AE07C190E4800684460BC424F
:1031800007D20C480168091D0D48006800F0FEFADE
:103190000CE008480168091D0A48006800F0F6FACA
:1031A00009480068844201D207480460BDE8F08104
:1031B000340000202000002038000020D003002030
:1031C00028000020240000205000002010B50446F4
:1031D00000F002FB23480068401C22490860224896
:1031E000006840B9204804600846006801280DD1F5
:1031F00000F03EF90AE01D48006838B91A48006836
:10320000C06AE16A884201D817480460184800681B
:10321000401C1749086094F82C100120884015497B
:103220000968084313490860E16A01EB8101124A09
:1032300002EB8100211D00F0C3FA00F0F7FA0B4801
:10324000006868B108480068C06AE16A884207D22D
:103250004FF0805009490860BFF34F8FBFF36F8F65
:1032600010BD000030000020200000203C000020A5
:103270004C00002038000020F402002004ED00E0A3
:1032800010B516E000F0A8FA0C48C068C468201D0C
:1032900000F04CFA0A480068401E094908600948D5
:1032A0000068401E0749086000F0C0FA204600F0A0
:1032B0000BF8044800680028E4D110BDBC030020CE
:1032C000300000202C00002010B5044694F8510076
:1032D00030B9206B00F0C8FA204600F0C5FA1AE0B9
:1032E00094F85100012803D1204600F0BDFA12E005
:1032F00094F85100022801D1012000E0002050B9CB
:1033000000BF502080F31188BFF34F8FBFF36F8F42
:1033100000BF00BFFEE710BD30B54FF47053174833
:1033200000F007042CB1C01D20F00700134C041B53
:103330001B1B0246124C22600024114D6C60D018F9
:10334000083820F007000F4C206000240D4D2D6838
:103350006C600C4D2D682C601146441A4C60094C71
:1033600024680C60084D4C682C60084D4C682C603B
:103370004FF00044064D2C6030BD0000E4030020F7
:103380005C000020640000206C0000206800002029
:103390007800002000BFFFF773FF0648006801288F
:1033A000F9D94FF0805004490860BFF34F8FBFF345
:1033B0006F8FF0E7F402002004ED00E02DE9FF5FDD
:1033C00081460E469246DDE90E7B109CAAF1010073
:1033D000216B01EB800828F0070808F0070008B906
:1033E000012000E0002050B900BF502080F3118878
:1033F000BFF34F8FBFF36F8F00BF00BFFEE786B1F3
:10340000002507E0715D04F134004155705D00B99D
:1034100002E06D1C102DF5D300BF002143200155A3
:1034200002E0002084F83400072F00D30627E7626B
:1034300067640020A064201D00F0A5F904F11800C5
:1034400000F0A1F92461C7F10700A06164620020C7
:10345000E06484F8500049464046039A00F050F971
:103460002060BBF1000F01D0CBF80040BDE8FF9F0A
:1034700010B5002407E004EB84010F4A02EB810041
:1034800000F074F9641C072CF5D30C4800F06EF9B9
:103490000B4800F06BF90B4800F068F90A4800F09F
:1034A00065F90A4800F062F90448094908600448CF
:1034B0000849086010BD0000F402002080030020CD
:1034C00094030020A8030020BC030020D0030020A8
:1034D000240000202800002010B50146164800E016
:1034E000006803688B42FBD30246436813448B4257
:1034F00004D143684C682344436001460A464B6844
:1035000013440468A34211D10C4C03682468A342FD
:1035100008D04B680468646823444B6003681B68E8
:103520000B6005E0054B1B680B6001E003680B6056
:10353000884200D0016010BD5C00002064000020C3
:103540000A490968096809B9012100E0002121B18F
:103550004FF0FF31064A116006E004490968C96866
:10356000C868034A416811607047000024000020C9
:10357000500000200E480068401C08B9012000E0FF
:10358000002050B900BF502080F31188BFF34F8F47
:10359000BFF36F8F00BF00BFFEE700BF502080F376
:1035A0001188BFF34F8FBFF36F8F00BF00BFFEE7DF
:1035B0007C0000202DE9F04104464FF0000800F0A7
:1035C000A9FA4948006808B9FFF7A6FE474800680D
:1035D0002040002870D1D4B1083404F00700B0B105
:1035E00004F00700C0F10800044404F0070008B923
:1035F000012000E0002050B900BF502080F3118866
:10360000BFF34F8FBFF36F8F00BF00BFFEE7002CEB
:1036100052D03748006884424ED8364E304605684E
:1036200001E02E462D686868A04202D22868002872
:10363000F7D12D48006885423ED0306800F1080877
:10364000286830606868001B102819D92F1907F006
:10365000070008B9012000E0002050B900BF502049
:1036600080F31188BFF34F8FBFF36F8F00BF00BF90
:10367000FEE76868001B78606C603846FFF72CFF37
:103680001B4968680968081A1949086008460068F3
:1036900019490968884203D215480068164908602C
:1036A0001249686809680843686000202860134868
:1036B0000068401C1149086000F068FC08F0070031
:1036C00008B9012000E0002050B900BF502080F36D
:1036D0001188BFF34F8FBFF36F8F00BF00BFFEE7AE
:1036E0004046BDE8F0810000640000207800002022
:1036F000680000205C0000206C00002070000020AA
:10370000001F4FF080730360001F21F0010303606E
:10371000001F054B036014380260001F6FF00203A6
:1037200003602038704700007535000801460A69BB
:10373000D1E901309860D1E90103586050688842AE
:1037400001D188685060002008611068401E106038
:1037500010687047034B0360034B0B6040231360FA
:1037600070470000EC0000204001002000F108013B
:1037700041604FF0FF31816000F10801C1600161DB
:1037800000210160704700210161704710B50246B9
:103790000B685C1C0CB9106907E002F1080000E03E
:1037A0004068446824689C42FAD944684C604C687C
:1037B000A160886041600A611468641C146010BDD7
:1037C00042684A6093688B609368596091600861B1
:1037D00003685B1C0360704700BF502080F31188B2
:1037E000BFF34F8FBFF36F8F00BF0E480068401CC0
:1037F0000C49086008460068012812D10A48006890
:10380000C0B208B9012000E0002050B900BF50202C
:1038100080F31188BFF34F8FBFF36F8F00BF00BFDE
:10382000FEE770477C00002004ED00E00D480068D2
:1038300050B900BF502080F31188BFF34F8FBFF302
:103840006F8F00BF00BFFEE706480068401E0549B5
:1038500008600846006820B9002080F3118800BF86
:1038600000BF70477C00002070B506463546002E2C
:1038700044D0083D2C46224960680968084008B1D8
:10388000012000E0002050B900BF502080F31188D3
:10389000BFF34F8FBFF36F8F00BF00BFFEE72068FD
:1038A00008B9012000E0002050B900BF502080F38B
:1038B0001188BFF34F8FBFF36F8F00BF00BFFEE7CC
:1038C0000F49606809680840C0B12068B0B90C4968
:1038D000606809688843606000F01CF90949606805
:1038E00009680844074908602046FFF7F5FD0648C7
:1038F0000068401C0449086000F048FB70BD0000EF
:1039000078000020680000207400002000204FF0A4
:10391000E02108618861064800684FF47A71B0FBC5
:10392000F1F0401E4FF0E021486107200861704728
:103930001C00002070B504460025D4B11248006870
:1039400008B9012000E0002050B900BF502080F3EA
:103950001188BFF34F8FBFF36F8F00BF00BFFEE72B
:1039600000F0D8F800212046FFF7E4FB00F00EFB42
:1039700005463DB94FF0805004490860BFF34F8FB2
:10398000BFF36F8F70BD00005800002004ED00E011
:103990002DE9F04704460F464FF0000954B900BF27
:1039A000502080F31188BFF34F8FBFF36F8F00BF9C
:1039B00000BFFEE70FB1012000E0002050B900BFBA
:1039C000502080F31188BFF34F8FBFF36F8F00BF7C
:1039D00000BFFEE72048006808B9012000E0002091
:1039E00050B900BF502080F31188BFF34F8FBFF351
:1039F0006F8F00BF00BFFEE700F08CF81748066825
:103A00002068C5192068B04207D92068A8420BD9A0
:103A1000B54209D94FF0010906E02068A84201D853
:103A2000B54201D94FF001092560B9F1000F03D06B
:103A3000A81B0021FFF77EFB00F0A8FA8046B8F132
:103A4000000F07D14FF0805005490860BFF34F8F3A
:103A5000BFF36F8FBDE8F0875800002034000020CE
:103A600004ED00E010B586B000200590049003AA94
:103A700004A905A8FFF76EFE0022DDE90410134635
:103A8000CDE9002102901CA11D48039A00F076F9AF
:103A90001C4908600846006808B1012400E00024C1
:103AA000012C15D100BF502080F31188BFF34F8F38
:103AB000BFF36F8F00BF4FF0FF3013490860012044
:103AC0001249086000201249086000F071F810E007
:103AD000601C08B1012000E0002050B900BF502058
:103AE00080F31188BFF34F8FBFF36F8F00BF00BF0C
:103AF000FEE706B010BD000049444C450000000040
:103B00009533000854000020500000203C000020A5
:103B10003400002002480068401C014908607047DA
:103B2000580000201D48006818B101201C49086099
:103B300032E000201A4908601A480068B0FA80F0A4
:103B4000C0F11F0101EB8100174A52F8200008B1B3
:103B5000012000E0002050B900BF502080F3118800
:103B6000BFF34F8FBFF36F8F00BF00BFFEE701EBC6
:103B700081020D4B03EB820042685268426000F103
:103B800008024368934202D1426852684260426828
:103B9000D268064B1A6000BF704700005800002032
:103BA0004400002038000020F40200202000002003
:103BB0001CB5524800685249884201D0012000E0FB
:103BC000002050B900BF502080F31188BFF34F8F01
:103BD000BFF36F8F00BF00BFFEE748480068484949
:103BE000491E884201D0012000E0002050B900BFEA
:103BF000502080F31188BFF34F8FBFF36F8F00BF4A
:103C000000BFFEE73F49084600780190FF200A46C2
:103C100010700846007800909DF8000000F0F00059
:103C20009DF80020904201D1012000E0002050B911
:103C300000BF502080F31188BFF34F8FBFF36F8F09
:103C400000BF00BFFEE79DF8000000F050002E4AC4
:103C5000107007202D4A106009E02C480068401EB3
:103C60002A4A10609DF800004006000E00909DF862
:103C7000000000F080008028EFD024480068C0F1E8
:103C80000700042801D1012000E0002050B900BF46
:103C9000502080F31188BFF34F8FBFF36F8F00BFA9
:103CA00000BFFEE7194800680002184A106010467D
:103CB000008800F4E0601060124A019810700F480C
:103CC0002030006840F470000C492031086008463C
:103CD000006840F070400860FFF718FE00200C49B3
:103CE0000860FCF7C5FA0B48006840F040400949FD
:103CF0000860FCF7A9FA00201CBD000000ED00E000
:103D000071C20F4100E400E0800000208400002028
:103D10007C00002034EF00E02DE9FF4F85B08046A5
:103D200089461746DDE912ABB800FFF743FC0646AB
:103D300056B15420FFF73EFC04460CB1266304E064
:103D40003046FFF791FD00E000248CB1002084F89C
:103D50005100CDE900ABCDE902403A464946404624
:103D6000089BFFF72BFB2046FFF730FA012501E007
:103D70004FF0FF35284609B0BDE8F08F2DE9F04F30
:103D800085B00746884691469A46DDE90EB6109CF6
:103D90000EB1012000E0002050B900BF502080F398
:103DA0001188BFF34F8FBFF36F8F00BF00BFFEE7D7
:103DB0000CB1012000E0002050B900BF502080F37A
:103DC0001188BFF34F8FBFF36F8F00BF00BFFEE7B7
:103DD000542003900398542801D1012000E00020D2
:103DE00050B900BF502080F31188BFF34F8FBFF34D
:103DF0006F8F00BF00BFFEE700BFB4B1AEB1254674
:103E00002C462E63022085F85100002004A9534659
:103E10004A46CDE900B1CDE9025041463846FFF7A8
:103E2000CDFA2846FFF7D2F901E00020049004986B
:103E300005B0BDE8F08F0000014908687047000038
:103E4000340000202DE9F0414FF00008444800689C
:103E500000287CD143480068451C4248056015BBDA
:103E600041480068006808B9012000E0002050B90E
:103E700000BF502080F31188BFF34F8FBFF36F8FC7
:103E800000BF00BFFEE73848076838480068364979
:103E900008603648076036480068401C34490860AE
:103EA000FFF74EFB00BF3348006885423CD300BF9C
:103EB0002D480068006808B9012000E0002020B10A
:103EC0004FF0FF302B4908602DE027480068C0689C
:103ED000C4686668B54202D22648066023E0201D09
:103EE000FFF724FCA06A18B104F11800FFF71EFCCC
:103EF00094F82C10012088401F49096808431E4986
:103F00000860E16A01EB81011C4A02EB8100211D7E
:103F1000FFF756FC1A49E06A0968C96A8842C7D3A4
:103F20004FF00108C4E700BF15480068C06A00EB05
:103F30008000124951F82000012801D94FF00108F2
:103F40001048006808B14FF0010805E0FFE70E488F
:103F50000068401C0C4908604046BDE8F081000044
:103F600058000020340000202400002028000020F9
:103F7000480000205000002038000020F4020020FB
:103F800020000020440000204000002070B50024E4
:103F900000263648006850B900BF502080F31188D1
:103FA000BFF34F8FBFF36F8F00BF00BFFEE7FFF778
:103FB00013FC2E480068401E2C4908600846006823
:103FC00000284FD12A48006800284BD024E0294817
:103FD000C068C46804F11800FFF7A8FB201DFFF7B4
:103FE000A5FB94F82C100120884023490968084358
:103FF00021490860E16A01EB8101204A02EB81005E
:10400000211DFFF7DDFB1E49E06A0968C96A884285
:1040100002D301201B4908601648006808B9012036
:1040200000E000200028D2D00CB1FFF789FA164832
:10403000056865B100BFFFF705FF10B10120114908
:1040400008606D1E002DF6D100200F4908600D4854
:10405000006838B1012630070C490860BFF34F8F64
:10406000BFF36F8FFFF7E2FB304670BD58000020B2
:1040700030000020A803002038000020F4020020B7
:1040800020000020440000204000002004ED00E05B
:1040900021F00042A2F16052B2F5801F01F000430E
:1040A00028BFD2F17F6C0BD95FEA001C43EAC20241
:1040B00042EB507018BF704728BF20F001007047D6
:1040C000B2F5801FBCBF184670474FEA410C1CF583
:1040D000001F02D2084600F012BC70B500F0CCFA06
:1040E00000000089FFF7F6BF4FF00040A0F5800008
:1040F0007047000010B591EA030F48BF83F00043FA
:1041000000F11683841A71EB030C05D2121943EBEC
:104110000C03001B61EB0C01DFF824E14FEA1154A2
:10412000A4EB135C1EEA430F18BF9EEA445F73D0F2
:1041300023EA0E03DCF1200E21EA045143F480133C
:1041400032D322FA0CFE10EB0E0023FA0CFE41EBE8
:104150000E01CCF1200E03FA0EFE10EB0E0051F111
:104160000001B1F5801FCCF1200E32D201EB0451D9
:1041700012FA0EF2BDE8104058BF7047401C38BF1D
:104180005FEA420218BF7047002814BF20F0010008
:1041900041F100014FEA410313F5001F38BF70479A
:1041A000A1F1C04100F0B6BA012A43EB0302ACF121
:1041B000200CDCF11F0E32BF4FF0000E23FA0CF37F
:1041C00010EB030041EB0451B4EB115FD0D0A1EB35
:1041D000045101F5801149085FEA300001EB0451F8
:1041E0000ED350F1000038BF12FA0EFE08D1BDE820
:1041F0001040C9E7401C38BF5FEA4202CAD1C3E79A
:10420000BDE810404FEA410313F5001F38BF704767
:10421000A1F1C04100F07EBA9EEA445F08D011EAE5
:104220005E0FBDE8104004BF01F000410020704760
:10423000BDE8104070B500F01FFA00BF64FBBE3E41
:104240000000E0FF2DE9C04130B4DFF8A0C23CEA35
:10425000111418BF3CEA131400F0EC8081EA030546
:104260001CEA111444EAD57418BF1CEA131500F0B7
:10427000C780A4EB05044FF0004545EAC12145EA9B
:10428000C32341EA505143EA525304F17F749942E7
:1042900004F500344FEAC0204FEAC22208BF904222
:1042A00000F09C804FEA13650FF24016765D4FEAEE
:1042B000134506FB05F7C7F1807706FB07F74FEAC2
:1042C000D737A7FB03687642C8F58038A7FB06CE30
:1042D00038BFA8F1010807FB08E64FF0000EA6FB67
:1042E000028CE6FB03CEDCF1000CCEF1004E38BFB1
:1042F000AEF1010EA6FB0C584FF000074FF0000581
:10430000E6FB0E87A1FB08C6A0FB07CE16EB0E0648
:1043100045F10005E1FB076515F1E04E7EBFA4F510
:1043200080345FEA46066D4116F1800745F10005CD
:104330004FEA17274FEA066647EA0567A6F1DE4609
:10434000B6F1805F4FEA15251FD9384624F0010CDD
:1043500005EBC471BCF1FE6F01EB0C1102D8F0BC8F
:10436000BDE8008124425CBF01F5801E9EEAC47F47
:1043700002D4F0BCBDE80081244238D4F0BCA1F1E5
:10438000C041BDE8004100F0C5B94FEAD22242EA7F
:1043900043524FEAD323A7FB02864FEAD02040EADC
:1043A000415007FB03661EEA0E0F4FEAD12105FBC1
:1043B000026658BFA6EB0056B6EB00564FEA520E07
:1043C0004EEAC37E18EB0E0E56EB530EBDD518EB1E
:1043D00002085E417F1C55F10005B6E74FF48015D9
:1043E0004FF000074FF000064FF00008ADE7F0BCBB
:1043F0004FF0000001F1C04101F00041BDE8008133
:1044000011EA0C1F0CEA131500D00CE013EA0C1F84
:1044100000F025804FF00000F0BC81EA030101F0BC
:104420000041BDE80081F0BCBDE8004181EA030124
:1044300000F070B9F0BCBDE8004170B500F01CF9A7
:10444000097EFC3E00F007B881EA03014FF000004E
:1044500001F00041704781EA030100F05BB9F0BC54
:10446000BDE800414FF0000021497047FFFDFBF916
:10447000F7F5F4F2F0EEEDEBE9E8E6E4E3E1E0DE97
:10448000DDDBDAD8D7D5D4D3D1D0CFCDCCCBCAC809
:10449000C7C6C5C4C2C1C0BFBEBDBCBBBAB9B8B730
:1044A000B6B5B4B3B2B1B0AFAEADACABAAA9A8A823
:1044B000A7A6A5A4A3A3A2A1A09F9F9E9D9C9C9BF1
:1044C0009A9999989797969595949393929191909C
:1044D0008F8F8E8E8D8C8C8B8B8A8989888887872D
:1044E0008685858484838382828181800000FF07A2
:1044F0000000F87F10F0004248BF4042B0FA80F35D
:1045000010FA03F10AD0C3F11D0303F580634FEAEB
:10451000415002EB035202EBD12170474FF00000F3
:1045200070470000DFF848C170B51CEA111E1EBFBD
:104530001CEA13159EEA0C0F95EA0C0F00F06F8031
:1045400081EA030423EA4C134EEAD47E21EA4C119B
:1045500041F4801143F48013AE44A1FB024CA0FB54
:104560000365AEF17F7E361955EB0C05A1FB034CBC
:104570004CF10003A0FB021C16EB0C06654153F145
:104580000003094218BF46F0010613F4007F0BD167
:104590004FEA03314FEA0530340341EA155140EA4E
:1045A00016506FF003020AE04FEAC3214FEAC5201C
:1045B000F40241EA555140EA56506FF0020202EB14
:1045C0002E4201EB025585EACE710AD05FEA440C17
:1045D00018BF24F0004450F1000041F1000120EA2E
:1045E000D47040F2FE7C624500D270BDA84214BF78
:1045F0004FF080444FF04044002E08BF0024BEF12D
:10460000806FA8BFA1F1C041BDE8704080F28280F8
:104610004FF0000001F1C04101F0004170479EEAF7
:104620000C0F0CEA131518BF95EA0C0F06D04FF0CB
:10463000000081EA030E0EF0004170BD00F01CF88E
:104640008900013E00F007B800F009B84FEA430CBA
:104650005FEA5C5C08D081EA030100F05BB84FEAD6
:10466000410C5FEA5C5CF6D14FF0000001497047F5
:104670000000FF070000F87F0EF1020E2EF0030E7F
:104680005EF8046B364205D4012A43EB030515F5A9
:10469000001F12D8012841EB010C1CF5001F0CD89B
:1046A0000ED14FEAD17C15F5001F0CEB4C0C0CF130
:1046B000020C08BF4CEBD37C04E04FF0080C01E087
:1046C0004FEAD37C0CEB4C0526FA05F606F00706FC
:1046D000B6F1040C06D20EEB860CBDE870404CF02F
:1046E000010C6047DFE80CF0090B02024FF00041BB
:1046F0004FF00000A1F5002170BD194610460128B9
:1047000051EB010418BFD4F5001484BF002001F060
:10471000004170BD0808A0F500114FEA3101704753
:1047200010B591EA030F48BF83F000433FF5EAACB0
:10473000841A71EB030C07D212198CF0004C43EB76
:104740000C03001B61EB0C01DFF8A4E14FEA1154EC
:10475000A4EB135C1EEA430F18BF9EEA445F00F00F
:10476000B08023EA6E03524221EA0451C3EB6E0388
:1047700038BF5B1EDCF1200E25D322FA0CFE10EBB5
:104780000E0043FA0CFE41EB0E01CCF1200E03FAB1
:104790000EFE10EB0E0051F10001CCF1200E29D4D9
:1047A00012FA0EF201EB0451BDE8104058BF7047F9
:1047B000401C1CBFB2F1004F704700280CBF491CC1
:1047C00020F00100704712EB020E43EB030218BF0A
:1047D0004FF0010E4EEA4202ACF1200CDCF11E0E4D
:1047E00054D943FA0CFE10EB0E0051F1FF31CCF11D
:1047F0001E0ED5D50EF1010E12FA0EFE404141EB10
:10480000010101EB445C5FEA5C5C10D910EBDE70E7
:1048100001EB045138BFBEF1004FBDE8104018BF96
:10482000704700280CBF491C20F00100704730D2AF
:104830004FEAD42C11F5001124F400641BD0B1FA16
:1048400081F20B3AA41AA41ED2F12003914030FA4F
:1048500003F31943904001EBCC71002C01EB0451A0
:10486000BDE81040A8BF704701F1C0414FF0000003
:1048700001F000417047B0FA80F310FA03F100D163
:1048800010BDE41A173C4805C90AE4E701EB0451DE
:1048900010BD491001EB0451BDE810404FEA300053
:1048A00002E04FF0000170474A0008BF0042F8D014
:1048B000B2F5001F28BF704701F000414FF0000023
:1048C00070479EEA445F07D011EA5E0FBDE81040D2
:1048D00004BF002100207047BDE8104070B5FFF70D
:1048E000CBFE00BF40DFF63E83F00041104670472C
:1048F0000000E0FF4FF04070E1EE100A7047FF212A
:1049000041EAD050C0057047B04C00083D2800086F
:10491000FDFF00000000000040000000000000005B
:1049200000000000A04C000849280008000000001A
:1049300000000000800000000000000000000000F7
:10494000944C0008C7280008FDFF0000000000008C
:10495000800000000000000000000000BC4C0008C7
:10496000BD280008000000000000000080000000DA
:104970000000000000000000000000000000000037
:1049800001020304060708090000000001020304F5
:10499000FF005EBCE2613FDD83C29C7E20A3FD1F61
:1049A000419DC3217FFCA2401E5F01E3BD3E6082AA
:1049B000DC237D9FC1421CFEA0E1BF5D0380DE3C85
:1049C00062BEE0025CDF81633D7C22C09E1D43A18C
:1049D000FF4618FAA427799BC584DA3866E5BB59E7
:1049E00007DB856739BAE406581947A5FB7826C462
:1049F0009A653BD987045AB8E6A7F91B45C6987A49
:104A000024F8A6441A99C7257B3A6486D85B05E743
:104A1000B98CD2306EEDB3510F4E10F2AC2F7193B2
:104A2000CD114FADF3702ECC92D38D6F31B2EC0E11
:104A300050AFF1134DCE90722C6D33D18F0C52B01C
:104A4000EE326C8ED0530DEFB1F0AE4C1291CF2DF3
:104A500073CA947628ABF517490856B4EA6937D576
:104A60008B5709EBB536688AD495CB2977F4AA48D9
:104A700016E9B7550B88D6346A2B7597C94A14F6D0
:104A8000A8742AC896154BA9F7B6E80A54D7896BBB
:104A900035000000891112239B322446AD5736653C
:104AA000BF74488CC19D5AAFD3BE6CCAE5DB7EE9AA
:104AB000F7F88110080193331A22A5562C47B775D1
:104AC0003E64C99C408DDBBF52AEEDDA64CBFFF98A
:104AD00076E802218B30100299132667AF763444B2
:104AE000BD554AADC3BC588ED19F6EEBE7FA7CC86A
:104AF000F5D983310A2091121803A7772E66B55491
:104B00003C45CBBD42ACD99E508FEFFB66EAFDD849
:104B100074C904428D5316619F702004A915322771
:104B2000BB364CCEC5DF5EEDD7FC6888E1997AAB29
:104B3000F3BA85520C4397711E60A1142805B33750
:104B40003A26CDDE44CFDFFD56ECE9986089FBBB09
:104B500072AA06638F7214409D512225AB34300631
:104B6000B9174EEFC7FE5CCCD5DD6AA9E3B8788AE9
:104B7000F19B87730E6295501C41A3352A24B11610
:104B80003807CFFF46EEDDDC54CDEBB962A8F99AC9
:104B9000708B088481951AA793B62CC2A5D33EE1E9
:104BA000B7F04008C919522BDB3A644EED5F766DC1
:104BB000FF7C899400859BB712A6ADD224C3BFF1B8
:104BC00036E0C1184809D33B5A2AE55E6C4FF77DA1
:104BD0007E6C0AA583B4188691972EE3A7F23CC099
:104BE000B5D14229CB38500AD91B666FEF7E744C81
:104BF000FD5D8BB502A499961087AFF326E2BDD078
:104C000034C1C3394A28D11A580BE77F6E6EF55C60
:104C10007C4D0CC685D71EE597F42880A1913AA358
:104C2000B3B2444ACD5B5669DF78600CE91D722F40
:104C3000FB3E8DD604C79FF516E4A9902081BBB337
:104C400032A2C55A4C4BD7795E68E11C680DF33F20
:104C50007A2E0EE787F61CC495D52AA1A3B0388218
:104C6000B193466BCF7A5448DD59622DEB3C700E00
:104C7000F91F8FF706E69DD414C5ABB122A0B992F7
:104C80003083C77B4E6AD5585C49E33D6A2CF11EE0
:104C9000780F0000494D555F5461736B00000000B0
:104CA00053656E64446174615461736B000000006D
:104CB00064656661756C745461736B005A65726FDC
:104CC000506F696E745461736B000000EC4C000807
:104CD00000000020EC000000C4010008D84D0008CE
:104CE000EC000020AC450000E001000800000000DE
:104CF00000000000000000000000000000000000B4
:104D000010000000010000000024F400000000007A
:104D10000000000000000000000000000000000093
:104D20000000000000000000000000000000000083
:104D30000000000000000000000000000000000073
:104D40000000000000000000000000000000000063
:104D50000000000000000000000000000000000053
:104D60000000000000000000AAAAAAAA000000009B
:104D70000000000000000000000000000000FFFF35
:104D80000000000000000000000000000000000023
:104D90000000000000000000000000000000000013
:104DA0000000000000000000000000000000000003
:104DB00000000000000000000000000000000000F3
:104DC00000000010001000100000000000000000B3
:084DD0000000000000000000DB
:040000050800018965
:00000001FF
